{
  "_format": "hh-sol-artifact-1",
  "contractName": "RFOXCollection",
  "sourceName": "contracts/RFOXCollection.sol",
  "abi": [
    {
      "inputs": [
        {
          "internalType": "string",
          "name": "contractURI_",
          "type": "string"
        },
        {
          "internalType": "string",
          "name": "name_",
          "type": "string"
        },
        {
          "internalType": "string",
          "name": "symbol_",
          "type": "string"
        },
        {
          "internalType": "address",
          "name": "proxyRegistryAddress_",
          "type": "address"
        }
      ],
      "stateMutability": "nonpayable",
      "type": "constructor"
    },
    {
      "anonymous": false,
      "inputs": [
        {
          "indexed": true,
          "internalType": "address",
          "name": "owner",
          "type": "address"
        },
        {
          "indexed": true,
          "internalType": "address",
          "name": "approved",
          "type": "address"
        },
        {
          "indexed": true,
          "internalType": "uint256",
          "name": "tokenId",
          "type": "uint256"
        }
      ],
      "name": "Approval",
      "type": "event"
    },
    {
      "anonymous": false,
      "inputs": [
        {
          "indexed": true,
          "internalType": "address",
          "name": "owner",
          "type": "address"
        },
        {
          "indexed": true,
          "internalType": "address",
          "name": "operator",
          "type": "address"
        },
        {
          "indexed": false,
          "internalType": "bool",
          "name": "approved",
          "type": "bool"
        }
      ],
      "name": "ApprovalForAll",
      "type": "event"
    },
    {
      "anonymous": false,
      "inputs": [
        {
          "indexed": true,
          "internalType": "address",
          "name": "previousOwner",
          "type": "address"
        },
        {
          "indexed": true,
          "internalType": "address",
          "name": "newOwner",
          "type": "address"
        }
      ],
      "name": "OwnershipTransferred",
      "type": "event"
    },
    {
      "anonymous": false,
      "inputs": [
        {
          "indexed": true,
          "internalType": "address",
          "name": "from",
          "type": "address"
        },
        {
          "indexed": true,
          "internalType": "address",
          "name": "to",
          "type": "address"
        },
        {
          "indexed": true,
          "internalType": "uint256",
          "name": "tokenId",
          "type": "uint256"
        }
      ],
      "name": "Transfer",
      "type": "event"
    },
    {
      "inputs": [
        {
          "internalType": "address",
          "name": "to",
          "type": "address"
        },
        {
          "internalType": "uint256",
          "name": "tokenId",
          "type": "uint256"
        }
      ],
      "name": "approve",
      "outputs": [],
      "stateMutability": "nonpayable",
      "type": "function"
    },
    {
      "inputs": [
        {
          "internalType": "address",
          "name": "owner",
          "type": "address"
        }
      ],
      "name": "balanceOf",
      "outputs": [
        {
          "internalType": "uint256",
          "name": "",
          "type": "uint256"
        }
      ],
      "stateMutability": "view",
      "type": "function"
    },
    {
      "inputs": [],
      "name": "contractURI",
      "outputs": [
        {
          "internalType": "string",
          "name": "",
          "type": "string"
        }
      ],
      "stateMutability": "view",
      "type": "function"
    },
    {
      "inputs": [
        {
          "internalType": "uint256",
          "name": "tokenId",
          "type": "uint256"
        }
      ],
      "name": "getApproved",
      "outputs": [
        {
          "internalType": "address",
          "name": "",
          "type": "address"
        }
      ],
      "stateMutability": "view",
      "type": "function"
    },
    {
      "inputs": [
        {
          "internalType": "address",
          "name": "owner",
          "type": "address"
        },
        {
          "internalType": "address",
          "name": "operator",
          "type": "address"
        }
      ],
      "name": "isApprovedForAll",
      "outputs": [
        {
          "internalType": "bool",
          "name": "",
          "type": "bool"
        }
      ],
      "stateMutability": "view",
      "type": "function"
    },
    {
      "inputs": [],
      "name": "name",
      "outputs": [
        {
          "internalType": "string",
          "name": "",
          "type": "string"
        }
      ],
      "stateMutability": "view",
      "type": "function"
    },
    {
      "inputs": [],
      "name": "owner",
      "outputs": [
        {
          "internalType": "address",
          "name": "",
          "type": "address"
        }
      ],
      "stateMutability": "view",
      "type": "function"
    },
    {
      "inputs": [
        {
          "internalType": "uint256",
          "name": "tokenId",
          "type": "uint256"
        }
      ],
      "name": "ownerOf",
      "outputs": [
        {
          "internalType": "address",
          "name": "",
          "type": "address"
        }
      ],
      "stateMutability": "view",
      "type": "function"
    },
    {
      "inputs": [],
      "name": "renounceOwnership",
      "outputs": [],
      "stateMutability": "nonpayable",
      "type": "function"
    },
    {
      "inputs": [
        {
          "internalType": "address",
          "name": "to_",
          "type": "address"
        },
        {
          "internalType": "string",
          "name": "tokenURI_",
          "type": "string"
        }
      ],
      "name": "safeMint",
      "outputs": [],
      "stateMutability": "nonpayable",
      "type": "function"
    },
    {
      "inputs": [
        {
          "internalType": "address",
          "name": "from",
          "type": "address"
        },
        {
          "internalType": "address",
          "name": "to",
          "type": "address"
        },
        {
          "internalType": "uint256",
          "name": "tokenId",
          "type": "uint256"
        }
      ],
      "name": "safeTransferFrom",
      "outputs": [],
      "stateMutability": "nonpayable",
      "type": "function"
    },
    {
      "inputs": [
        {
          "internalType": "address",
          "name": "from",
          "type": "address"
        },
        {
          "internalType": "address",
          "name": "to",
          "type": "address"
        },
        {
          "internalType": "uint256",
          "name": "tokenId",
          "type": "uint256"
        },
        {
          "internalType": "bytes",
          "name": "_data",
          "type": "bytes"
        }
      ],
      "name": "safeTransferFrom",
      "outputs": [],
      "stateMutability": "nonpayable",
      "type": "function"
    },
    {
      "inputs": [
        {
          "internalType": "address",
          "name": "operator",
          "type": "address"
        },
        {
          "internalType": "bool",
          "name": "approved",
          "type": "bool"
        }
      ],
      "name": "setApprovalForAll",
      "outputs": [],
      "stateMutability": "nonpayable",
      "type": "function"
    },
    {
      "inputs": [
        {
          "internalType": "uint256",
          "name": "tokenId_",
          "type": "uint256"
        },
        {
          "internalType": "string",
          "name": "tokenURI_",
          "type": "string"
        }
      ],
      "name": "setTokenURI",
      "outputs": [],
      "stateMutability": "nonpayable",
      "type": "function"
    },
    {
      "inputs": [
        {
          "internalType": "bytes4",
          "name": "interfaceId",
          "type": "bytes4"
        }
      ],
      "name": "supportsInterface",
      "outputs": [
        {
          "internalType": "bool",
          "name": "",
          "type": "bool"
        }
      ],
      "stateMutability": "view",
      "type": "function"
    },
    {
      "inputs": [],
      "name": "symbol",
      "outputs": [
        {
          "internalType": "string",
          "name": "",
          "type": "string"
        }
      ],
      "stateMutability": "view",
      "type": "function"
    },
    {
      "inputs": [
        {
          "internalType": "uint256",
          "name": "index",
          "type": "uint256"
        }
      ],
      "name": "tokenByIndex",
      "outputs": [
        {
          "internalType": "uint256",
          "name": "",
          "type": "uint256"
        }
      ],
      "stateMutability": "view",
      "type": "function"
    },
    {
      "inputs": [
        {
          "internalType": "address",
          "name": "owner",
          "type": "address"
        },
        {
          "internalType": "uint256",
          "name": "index",
          "type": "uint256"
        }
      ],
      "name": "tokenOfOwnerByIndex",
      "outputs": [
        {
          "internalType": "uint256",
          "name": "",
          "type": "uint256"
        }
      ],
      "stateMutability": "view",
      "type": "function"
    },
    {
      "inputs": [
        {
          "internalType": "uint256",
          "name": "tokenId",
          "type": "uint256"
        }
      ],
      "name": "tokenURI",
      "outputs": [
        {
          "internalType": "string",
          "name": "",
          "type": "string"
        }
      ],
      "stateMutability": "view",
      "type": "function"
    },
    {
      "inputs": [],
      "name": "totalSupply",
      "outputs": [
        {
          "internalType": "uint256",
          "name": "",
          "type": "uint256"
        }
      ],
      "stateMutability": "view",
      "type": "function"
    },
    {
      "inputs": [
        {
          "internalType": "address",
          "name": "from",
          "type": "address"
        },
        {
          "internalType": "address",
          "name": "to",
          "type": "address"
        },
        {
          "internalType": "uint256",
          "name": "tokenId",
          "type": "uint256"
        }
      ],
      "name": "transferFrom",
      "outputs": [],
      "stateMutability": "nonpayable",
      "type": "function"
    },
    {
      "inputs": [
        {
          "internalType": "address",
          "name": "newOwner",
          "type": "address"
        }
      ],
      "name": "transferOwnership",
      "outputs": [],
      "stateMutability": "nonpayable",
      "type": "function"
    }
  ],
  "bytecode": "0x60806040523480156200001157600080fd5b506040516200413d3803806200413d8339818101604052810190620000379190620002f8565b8282816000908051906020019062000051929190620001bf565b5080600190805190602001906200006a929190620001bf565b5050506200008d62000081620000f160201b60201c565b620000f960201b60201c565b83600c9080519060200190620000a5929190620001bf565b5080600d60006101000a81548173ffffffffffffffffffffffffffffffffffffffff021916908373ffffffffffffffffffffffffffffffffffffffff160217905550505050506200052e565b600033905090565b6000600b60009054906101000a900473ffffffffffffffffffffffffffffffffffffffff16905081600b60006101000a81548173ffffffffffffffffffffffffffffffffffffffff021916908373ffffffffffffffffffffffffffffffffffffffff1602179055508173ffffffffffffffffffffffffffffffffffffffff168173ffffffffffffffffffffffffffffffffffffffff167f8be0079c531659141344cd1fd0a4f28419497f9722a3daafe3b4186f6b6457e060405160405180910390a35050565b828054620001cd9062000480565b90600052602060002090601f016020900481019282620001f157600085556200023d565b82601f106200020c57805160ff19168380011785556200023d565b828001600101855582156200023d579182015b828111156200023c5782518255916020019190600101906200021f565b5b5090506200024c919062000250565b5090565b5b808211156200026b57600081600090555060010162000251565b5090565b6000620002866200028084620003e3565b620003af565b9050828152602081018484840111156200029f57600080fd5b620002ac8482856200044a565b509392505050565b600081519050620002c58162000514565b92915050565b600082601f830112620002dd57600080fd5b8151620002ef8482602086016200026f565b91505092915050565b600080600080608085870312156200030f57600080fd5b600085015167ffffffffffffffff8111156200032a57600080fd5b6200033887828801620002cb565b945050602085015167ffffffffffffffff8111156200035657600080fd5b6200036487828801620002cb565b935050604085015167ffffffffffffffff8111156200038257600080fd5b6200039087828801620002cb565b9250506060620003a387828801620002b4565b91505092959194509250565b6000604051905081810181811067ffffffffffffffff82111715620003d957620003d8620004e5565b5b8060405250919050565b600067ffffffffffffffff821115620004015762000400620004e5565b5b601f19601f8301169050602081019050919050565b600062000423826200042a565b9050919050565b600073ffffffffffffffffffffffffffffffffffffffff82169050919050565b60005b838110156200046a5780820151818401526020810190506200044d565b838111156200047a576000848401525b50505050565b600060028204905060018216806200049957607f821691505b60208210811415620004b057620004af620004b6565b5b50919050565b7f4e487b7100000000000000000000000000000000000000000000000000000000600052602260045260246000fd5b7f4e487b7100000000000000000000000000000000000000000000000000000000600052604160045260246000fd5b6200051f8162000416565b81146200052b57600080fd5b50565b613bff806200053e6000396000f3fe608060405234801561001057600080fd5b50600436106101425760003560e01c806370a08231116100b8578063b88d4fde1161007c578063b88d4fde14610375578063c87b56dd14610391578063d204c45e146103c1578063e8a3d485146103dd578063e985e9c5146103fb578063f2fde38b1461042b57610142565b806370a08231146102e3578063715018a6146103135780638da5cb5b1461031d57806395d89b411461033b578063a22cb4651461035957610142565b806318160ddd1161010a57806318160ddd146101fd57806323b872dd1461021b5780632f745c591461023757806342842e0e146102675780634f6ccce7146102835780636352211e146102b357610142565b806301ffc9a71461014757806306fdde0314610177578063081812fc14610195578063095ea7b3146101c5578063162094c4146101e1575b600080fd5b610161600480360381019061015c91906129ef565b610447565b60405161016e919061346e565b60405180910390f35b61017f610459565b60405161018c9190613489565b60405180910390f35b6101af60048036038101906101aa9190612a6a565b6104eb565b6040516101bc9190613407565b60405180910390f35b6101df60048036038101906101da91906129b3565b610570565b005b6101fb60048036038101906101f69190612a93565b610688565b005b61020561072a565b604051610212919061376b565b60405180910390f35b61023560048036038101906102309190612859565b610737565b005b610251600480360381019061024c91906129b3565b610797565b60405161025e919061376b565b60405180910390f35b610281600480360381019061027c9190612859565b61083c565b005b61029d60048036038101906102989190612a6a565b61085c565b6040516102aa919061376b565b60405180910390f35b6102cd60048036038101906102c89190612a6a565b6108f3565b6040516102da9190613407565b60405180910390f35b6102fd60048036038101906102f891906127f4565b6109a5565b60405161030a919061376b565b60405180910390f35b61031b610a5d565b005b610325610ae5565b6040516103329190613407565b60405180910390f35b610343610b0f565b6040516103509190613489565b60405180910390f35b610373600480360381019061036e9190612923565b610ba1565b005b61038f600480360381019061038a91906128a8565b610d22565b005b6103ab60048036038101906103a69190612a6a565b610d84565b6040516103b89190613489565b60405180910390f35b6103db60048036038101906103d6919061295f565b610d96565b005b6103e5610e87565b6040516103f29190613489565b60405180910390f35b6104156004803603810190610410919061281d565b610f19565b604051610422919061346e565b60405180910390f35b610445600480360381019061044091906127f4565b61101b565b005b600061045282611113565b9050919050565b606060008054610468906139dd565b80601f0160208091040260200160405190810160405280929190818152602001828054610494906139dd565b80156104e15780601f106104b6576101008083540402835291602001916104e1565b820191906000526020600020905b8154815290600101906020018083116104c457829003601f168201915b5050505050905090565b60006104f68261118d565b610535576040517f08c379a000000000000000000000000000000000000000000000000000000000815260040161052c9061366b565b60405180910390fd5b6004600083815260200190815260200160002060009054906101000a900473ffffffffffffffffffffffffffffffffffffffff169050919050565b600061057b826108f3565b90508073ffffffffffffffffffffffffffffffffffffffff168373ffffffffffffffffffffffffffffffffffffffff1614156105ec576040517f08c379a00000000000000000000000000000000000000000000000000000000081526004016105e3906136eb565b60405180910390fd5b8073ffffffffffffffffffffffffffffffffffffffff1661060b6111f9565b73ffffffffffffffffffffffffffffffffffffffff16148061063a5750610639816106346111f9565b610f19565b5b610679576040517f08c379a0000000000000000000000000000000000000000000000000000000008152600401610670906135ab565b60405180910390fd5b6106838383611201565b505050565b6106996106936111f9565b836112ba565b6106d8576040517f08c379a00000000000000000000000000000000000000000000000000000000081526004016106cf906134eb565b60405180910390fd5b600081511161071c576040517f08c379a00000000000000000000000000000000000000000000000000000000081526004016107139061370b565b60405180910390fd5b6107268282611398565b5050565b6000600880549050905090565b6107486107426111f9565b826112ba565b610787576040517f08c379a000000000000000000000000000000000000000000000000000000000815260040161077e9061372b565b60405180910390fd5b61079283838361140c565b505050565b60006107a2836109a5565b82106107e3576040517f08c379a00000000000000000000000000000000000000000000000000000000081526004016107da906134ab565b60405180910390fd5b600660008473ffffffffffffffffffffffffffffffffffffffff1673ffffffffffffffffffffffffffffffffffffffff168152602001908152602001600020600083815260200190815260200160002054905092915050565b61085783838360405180602001604052806000815250610d22565b505050565b600061086661072a565b82106108a7576040517f08c379a000000000000000000000000000000000000000000000000000000000815260040161089e9061374b565b60405180910390fd5b600882815481106108e1577f4e487b7100000000000000000000000000000000000000000000000000000000600052603260045260246000fd5b90600052602060002001549050919050565b6000806002600084815260200190815260200160002060009054906101000a900473ffffffffffffffffffffffffffffffffffffffff169050600073ffffffffffffffffffffffffffffffffffffffff168173ffffffffffffffffffffffffffffffffffffffff16141561099c576040517f08c379a0000000000000000000000000000000000000000000000000000000008152600401610993906135eb565b60405180910390fd5b80915050919050565b60008073ffffffffffffffffffffffffffffffffffffffff168273ffffffffffffffffffffffffffffffffffffffff161415610a16576040517f08c379a0000000000000000000000000000000000000000000000000000000008152600401610a0d906135cb565b60405180910390fd5b600360008373ffffffffffffffffffffffffffffffffffffffff1673ffffffffffffffffffffffffffffffffffffffff168152602001908152602001600020549050919050565b610a656111f9565b73ffffffffffffffffffffffffffffffffffffffff16610a83610ae5565b73ffffffffffffffffffffffffffffffffffffffff1614610ad9576040517f08c379a0000000000000000000000000000000000000000000000000000000008152600401610ad09061368b565b60405180910390fd5b610ae36000611668565b565b6000600b60009054906101000a900473ffffffffffffffffffffffffffffffffffffffff16905090565b606060018054610b1e906139dd565b80601f0160208091040260200160405190810160405280929190818152602001828054610b4a906139dd565b8015610b975780601f10610b6c57610100808354040283529160200191610b97565b820191906000526020600020905b815481529060010190602001808311610b7a57829003601f168201915b5050505050905090565b610ba96111f9565b73ffffffffffffffffffffffffffffffffffffffff168273ffffffffffffffffffffffffffffffffffffffff161415610c17576040517f08c379a0000000000000000000000000000000000000000000000000000000008152600401610c0e9061356b565b60405180910390fd5b8060056000610c246111f9565b73ffffffffffffffffffffffffffffffffffffffff1673ffffffffffffffffffffffffffffffffffffffff16815260200190815260200160002060008473ffffffffffffffffffffffffffffffffffffffff1673ffffffffffffffffffffffffffffffffffffffff16815260200190815260200160002060006101000a81548160ff0219169083151502179055508173ffffffffffffffffffffffffffffffffffffffff16610cd16111f9565b73ffffffffffffffffffffffffffffffffffffffff167f17307eab39ab6107e8899845ad3d59bd9653f200f220920489ca2b5937696c3183604051610d16919061346e565b60405180910390a35050565b610d33610d2d6111f9565b836112ba565b610d72576040517f08c379a0000000000000000000000000000000000000000000000000000000008152600401610d699061372b565b60405180910390fd5b610d7e8484848461172e565b50505050565b6060610d8f8261178a565b9050919050565b610d9e6111f9565b73ffffffffffffffffffffffffffffffffffffffff16610dbc610ae5565b73ffffffffffffffffffffffffffffffffffffffff1614610e12576040517f08c379a0000000000000000000000000000000000000000000000000000000008152600401610e099061368b565b60405180910390fd5b6000815111610e56576040517f08c379a0000000000000000000000000000000000000000000000000000000008152600401610e4d9061370b565b60405180910390fd5b6000610e62600e6118dc565b9050610e6e83826118ea565b610e788183611398565b610e82600e611908565b505050565b6060600c8054610e96906139dd565b80601f0160208091040260200160405190810160405280929190818152602001828054610ec2906139dd565b8015610f0f5780601f10610ee457610100808354040283529160200191610f0f565b820191906000526020600020905b815481529060010190602001808311610ef257829003601f168201915b5050505050905090565b600080600d60009054906101000a900473ffffffffffffffffffffffffffffffffffffffff1690508273ffffffffffffffffffffffffffffffffffffffff168173ffffffffffffffffffffffffffffffffffffffff1663c4552791866040518263ffffffff1660e01b8152600401610f919190613407565b60206040518083038186803b158015610fa957600080fd5b505afa158015610fbd573d6000803e3d6000fd5b505050506040513d601f19601f82011682018060405250810190610fe19190612a41565b73ffffffffffffffffffffffffffffffffffffffff161415611007576001915050611015565b611011848461191e565b9150505b92915050565b6110236111f9565b73ffffffffffffffffffffffffffffffffffffffff16611041610ae5565b73ffffffffffffffffffffffffffffffffffffffff1614611097576040517f08c379a000000000000000000000000000000000000000000000000000000000815260040161108e9061368b565b60405180910390fd5b600073ffffffffffffffffffffffffffffffffffffffff168173ffffffffffffffffffffffffffffffffffffffff161415611107576040517f08c379a00000000000000000000000000000000000000000000000000000000081526004016110fe9061350b565b60405180910390fd5b61111081611668565b50565b60007f780e9d63000000000000000000000000000000000000000000000000000000007bffffffffffffffffffffffffffffffffffffffffffffffffffffffff1916827bffffffffffffffffffffffffffffffffffffffffffffffffffffffff191614806111865750611185826119b2565b5b9050919050565b60008073ffffffffffffffffffffffffffffffffffffffff166002600084815260200190815260200160002060009054906101000a900473ffffffffffffffffffffffffffffffffffffffff1673ffffffffffffffffffffffffffffffffffffffff1614159050919050565b600033905090565b816004600083815260200190815260200160002060006101000a81548173ffffffffffffffffffffffffffffffffffffffff021916908373ffffffffffffffffffffffffffffffffffffffff160217905550808273ffffffffffffffffffffffffffffffffffffffff16611274836108f3565b73ffffffffffffffffffffffffffffffffffffffff167f8c5be1e5ebec7d5bd14f71427d1e84f3dd0314c0f7b2291e5b200ac8c7c3b92560405160405180910390a45050565b60006112c58261118d565b611304576040517f08c379a00000000000000000000000000000000000000000000000000000000081526004016112fb9061358b565b60405180910390fd5b600061130f836108f3565b90508073ffffffffffffffffffffffffffffffffffffffff168473ffffffffffffffffffffffffffffffffffffffff16148061137e57508373ffffffffffffffffffffffffffffffffffffffff16611366846104eb565b73ffffffffffffffffffffffffffffffffffffffff16145b8061138f575061138e8185610f19565b5b91505092915050565b6113a18261118d565b6113e0576040517f08c379a00000000000000000000000000000000000000000000000000000000081526004016113d79061360b565b60405180910390fd5b80600a60008481526020019081526020016000209080519060200190611407929190612603565b505050565b8273ffffffffffffffffffffffffffffffffffffffff1661142c826108f3565b73ffffffffffffffffffffffffffffffffffffffff1614611482576040517f08c379a0000000000000000000000000000000000000000000000000000000008152600401611479906136ab565b60405180910390fd5b600073ffffffffffffffffffffffffffffffffffffffff168273ffffffffffffffffffffffffffffffffffffffff1614156114f2576040517f08c379a00000000000000000000000000000000000000000000000000000000081526004016114e99061354b565b60405180910390fd5b6114fd838383611a94565b611508600082611201565b6001600360008573ffffffffffffffffffffffffffffffffffffffff1673ffffffffffffffffffffffffffffffffffffffff168152602001908152602001600020600082825461155891906138e1565b925050819055506001600360008473ffffffffffffffffffffffffffffffffffffffff1673ffffffffffffffffffffffffffffffffffffffff16815260200190815260200160002060008282546115af919061385a565b92505081905550816002600083815260200190815260200160002060006101000a81548173ffffffffffffffffffffffffffffffffffffffff021916908373ffffffffffffffffffffffffffffffffffffffff160217905550808273ffffffffffffffffffffffffffffffffffffffff168473ffffffffffffffffffffffffffffffffffffffff167fddf252ad1be2c89b69c2b068fc378daa952ba7f163c4a11628f55a4df523b3ef60405160405180910390a4505050565b6000600b60009054906101000a900473ffffffffffffffffffffffffffffffffffffffff16905081600b60006101000a81548173ffffffffffffffffffffffffffffffffffffffff021916908373ffffffffffffffffffffffffffffffffffffffff1602179055508173ffffffffffffffffffffffffffffffffffffffff168173ffffffffffffffffffffffffffffffffffffffff167f8be0079c531659141344cd1fd0a4f28419497f9722a3daafe3b4186f6b6457e060405160405180910390a35050565b61173984848461140c565b61174584848484611aa4565b611784576040517f08c379a000000000000000000000000000000000000000000000000000000000815260040161177b906134cb565b60405180910390fd5b50505050565b60606117958261118d565b6117d4576040517f08c379a00000000000000000000000000000000000000000000000000000000081526004016117cb9061364b565b60405180910390fd5b6000600a600084815260200190815260200160002080546117f4906139dd565b80601f0160208091040260200160405190810160405280929190818152602001828054611820906139dd565b801561186d5780601f106118425761010080835404028352916020019161186d565b820191906000526020600020905b81548152906001019060200180831161185057829003601f168201915b50505050509050600061187e611c3b565b90506000815114156118945781925050506118d7565b6000825111156118c95780826040516020016118b19291906133e3565b604051602081830303815290604052925050506118d7565b6118d284611c78565b925050505b919050565b600081600001549050919050565b611904828260405180602001604052806000815250611d1f565b5050565b6001816000016000828254019250508190555050565b6000600560008473ffffffffffffffffffffffffffffffffffffffff1673ffffffffffffffffffffffffffffffffffffffff16815260200190815260200160002060008373ffffffffffffffffffffffffffffffffffffffff1673ffffffffffffffffffffffffffffffffffffffff16815260200190815260200160002060009054906101000a900460ff16905092915050565b60007f80ac58cd000000000000000000000000000000000000000000000000000000007bffffffffffffffffffffffffffffffffffffffffffffffffffffffff1916827bffffffffffffffffffffffffffffffffffffffffffffffffffffffff19161480611a7d57507f5b5e139f000000000000000000000000000000000000000000000000000000007bffffffffffffffffffffffffffffffffffffffffffffffffffffffff1916827bffffffffffffffffffffffffffffffffffffffffffffffffffffffff1916145b80611a8d5750611a8c82611d7a565b5b9050919050565b611a9f838383611de4565b505050565b6000611ac58473ffffffffffffffffffffffffffffffffffffffff16611ef8565b15611c2e578373ffffffffffffffffffffffffffffffffffffffff1663150b7a02611aee6111f9565b8786866040518563ffffffff1660e01b8152600401611b109493929190613422565b602060405180830381600087803b158015611b2a57600080fd5b505af1925050508015611b5b57506040513d601f19601f82011682018060405250810190611b589190612a18565b60015b611bde573d8060008114611b8b576040519150601f19603f3d011682016040523d82523d6000602084013e611b90565b606091505b50600081511415611bd6576040517f08c379a0000000000000000000000000000000000000000000000000000000008152600401611bcd906134cb565b60405180910390fd5b805181602001fd5b63150b7a0260e01b7bffffffffffffffffffffffffffffffffffffffffffffffffffffffff1916817bffffffffffffffffffffffffffffffffffffffffffffffffffffffff191614915050611c33565b600190505b949350505050565b60606040518060400160405280600781526020017f697066733a2f2f00000000000000000000000000000000000000000000000000815250905090565b6060611c838261118d565b611cc2576040517f08c379a0000000000000000000000000000000000000000000000000000000008152600401611cb9906136cb565b60405180910390fd5b6000611ccc611c3b565b90506000815111611cec5760405180602001604052806000815250611d17565b80611cf684611f0b565b604051602001611d079291906133e3565b6040516020818303038152906040525b915050919050565b611d2983836120b8565b611d366000848484611aa4565b611d75576040517f08c379a0000000000000000000000000000000000000000000000000000000008152600401611d6c906134cb565b60405180910390fd5b505050565b60007f01ffc9a7000000000000000000000000000000000000000000000000000000007bffffffffffffffffffffffffffffffffffffffffffffffffffffffff1916827bffffffffffffffffffffffffffffffffffffffffffffffffffffffff1916149050919050565b611def838383612286565b600073ffffffffffffffffffffffffffffffffffffffff168373ffffffffffffffffffffffffffffffffffffffff161415611e3257611e2d8161228b565b611e71565b8173ffffffffffffffffffffffffffffffffffffffff168373ffffffffffffffffffffffffffffffffffffffff1614611e7057611e6f83826122d4565b5b5b600073ffffffffffffffffffffffffffffffffffffffff168273ffffffffffffffffffffffffffffffffffffffff161415611eb457611eaf81612441565b611ef3565b8273ffffffffffffffffffffffffffffffffffffffff168273ffffffffffffffffffffffffffffffffffffffff1614611ef257611ef18282612584565b5b5b505050565b600080823b905060008111915050919050565b60606000821415611f53576040518060400160405280600181526020017f300000000000000000000000000000000000000000000000000000000000000081525090506120b3565b600082905060005b60008214611f85578080611f6e90613a0f565b915050600a82611f7e91906138b0565b9150611f5b565b60008167ffffffffffffffff811115611fc7577f4e487b7100000000000000000000000000000000000000000000000000000000600052604160045260246000fd5b6040519080825280601f01601f191660200182016040528015611ff95781602001600182028036833780820191505090505b5090505b600085146120ac5760018261201291906138e1565b9150600a856120219190613a58565b603061202d919061385a565b60f81b818381518110612069577f4e487b7100000000000000000000000000000000000000000000000000000000600052603260045260246000fd5b60200101907effffffffffffffffffffffffffffffffffffffffffffffffffffffffffffff1916908160001a905350600a856120a591906138b0565b9450611ffd565b8093505050505b919050565b600073ffffffffffffffffffffffffffffffffffffffff168273ffffffffffffffffffffffffffffffffffffffff161415612128576040517f08c379a000000000000000000000000000000000000000000000000000000000815260040161211f9061362b565b60405180910390fd5b6121318161118d565b15612171576040517f08c379a00000000000000000000000000000000000000000000000000000000081526004016121689061352b565b60405180910390fd5b61217d60008383611a94565b6001600360008473ffffffffffffffffffffffffffffffffffffffff1673ffffffffffffffffffffffffffffffffffffffff16815260200190815260200160002060008282546121cd919061385a565b92505081905550816002600083815260200190815260200160002060006101000a81548173ffffffffffffffffffffffffffffffffffffffff021916908373ffffffffffffffffffffffffffffffffffffffff160217905550808273ffffffffffffffffffffffffffffffffffffffff16600073ffffffffffffffffffffffffffffffffffffffff167fddf252ad1be2c89b69c2b068fc378daa952ba7f163c4a11628f55a4df523b3ef60405160405180910390a45050565b505050565b6008805490506009600083815260200190815260200160002081905550600881908060018154018082558091505060019003906000526020600020016000909190919091505550565b600060016122e1846109a5565b6122eb91906138e1565b90506000600760008481526020019081526020016000205490508181146123d0576000600660008673ffffffffffffffffffffffffffffffffffffffff1673ffffffffffffffffffffffffffffffffffffffff168152602001908152602001600020600084815260200190815260200160002054905080600660008773ffffffffffffffffffffffffffffffffffffffff1673ffffffffffffffffffffffffffffffffffffffff168152602001908152602001600020600084815260200190815260200160002081905550816007600083815260200190815260200160002081905550505b6007600084815260200190815260200160002060009055600660008573ffffffffffffffffffffffffffffffffffffffff1673ffffffffffffffffffffffffffffffffffffffff16815260200190815260200160002060008381526020019081526020016000206000905550505050565b6000600160088054905061245591906138e1565b90506000600960008481526020019081526020016000205490506000600883815481106124ab577f4e487b7100000000000000000000000000000000000000000000000000000000600052603260045260246000fd5b9060005260206000200154905080600883815481106124f3577f4e487b7100000000000000000000000000000000000000000000000000000000600052603260045260246000fd5b906000526020600020018190555081600960008381526020019081526020016000208190555060096000858152602001908152602001600020600090556008805480612568577f4e487b7100000000000000000000000000000000000000000000000000000000600052603160045260246000fd5b6001900381819060005260206000200160009055905550505050565b600061258f836109a5565b905081600660008573ffffffffffffffffffffffffffffffffffffffff1673ffffffffffffffffffffffffffffffffffffffff168152602001908152602001600020600083815260200190815260200160002081905550806007600084815260200190815260200160002081905550505050565b82805461260f906139dd565b90600052602060002090601f0160209004810192826126315760008555612678565b82601f1061264a57805160ff1916838001178555612678565b82800160010185558215612678579182015b8281111561267757825182559160200191906001019061265c565b5b5090506126859190612689565b5090565b5b808211156126a257600081600090555060010161268a565b5090565b60006126b96126b4846137b7565b613786565b9050828152602081018484840111156126d157600080fd5b6126dc84828561399b565b509392505050565b60006126f76126f2846137e7565b613786565b90508281526020810184848401111561270f57600080fd5b61271a84828561399b565b509392505050565b60008135905061273181613b56565b92915050565b60008135905061274681613b6d565b92915050565b60008135905061275b81613b84565b92915050565b60008151905061277081613b84565b92915050565b600082601f83011261278757600080fd5b81356127978482602086016126a6565b91505092915050565b6000815190506127af81613b9b565b92915050565b600082601f8301126127c657600080fd5b81356127d68482602086016126e4565b91505092915050565b6000813590506127ee81613bb2565b92915050565b60006020828403121561280657600080fd5b600061281484828501612722565b91505092915050565b6000806040838503121561283057600080fd5b600061283e85828601612722565b925050602061284f85828601612722565b9150509250929050565b60008060006060848603121561286e57600080fd5b600061287c86828701612722565b935050602061288d86828701612722565b925050604061289e868287016127df565b9150509250925092565b600080600080608085870312156128be57600080fd5b60006128cc87828801612722565b94505060206128dd87828801612722565b93505060406128ee878288016127df565b925050606085013567ffffffffffffffff81111561290b57600080fd5b61291787828801612776565b91505092959194509250565b6000806040838503121561293657600080fd5b600061294485828601612722565b925050602061295585828601612737565b9150509250929050565b6000806040838503121561297257600080fd5b600061298085828601612722565b925050602083013567ffffffffffffffff81111561299d57600080fd5b6129a9858286016127b5565b9150509250929050565b600080604083850312156129c657600080fd5b60006129d485828601612722565b92505060206129e5858286016127df565b9150509250929050565b600060208284031215612a0157600080fd5b6000612a0f8482850161274c565b91505092915050565b600060208284031215612a2a57600080fd5b6000612a3884828501612761565b91505092915050565b600060208284031215612a5357600080fd5b6000612a61848285016127a0565b91505092915050565b600060208284031215612a7c57600080fd5b6000612a8a848285016127df565b91505092915050565b60008060408385031215612aa657600080fd5b6000612ab4858286016127df565b925050602083013567ffffffffffffffff811115612ad157600080fd5b612add858286016127b5565b9150509250929050565b612af081613915565b82525050565b612aff81613927565b82525050565b6000612b1082613817565b612b1a818561382d565b9350612b2a8185602086016139aa565b612b3381613b45565b840191505092915050565b6000612b4982613822565b612b53818561383e565b9350612b638185602086016139aa565b612b6c81613b45565b840191505092915050565b6000612b8282613822565b612b8c818561384f565b9350612b9c8185602086016139aa565b80840191505092915050565b6000612bb5602b8361383e565b91507f455243373231456e756d657261626c653a206f776e657220696e646578206f7560008301527f74206f6620626f756e64730000000000000000000000000000000000000000006020830152604082019050919050565b6000612c1b60328361383e565b91507f4552433732313a207472616e7366657220746f206e6f6e20455243373231526560008301527f63656976657220696d706c656d656e74657200000000000000000000000000006020830152604082019050919050565b6000612c81603e8361383e565b91507f52464f58436f6c6c656374696f6e3a2060736574546f6b656e5552496020636160008301527f6c6c6572206973206e6f74206f776e6572206e6f7220617070726f76656400006020830152604082019050919050565b6000612ce760268361383e565b91507f4f776e61626c653a206e6577206f776e657220697320746865207a65726f206160008301527f64647265737300000000000000000000000000000000000000000000000000006020830152604082019050919050565b6000612d4d601c8361383e565b91507f4552433732313a20746f6b656e20616c7265616479206d696e746564000000006000830152602082019050919050565b6000612d8d60248361383e565b91507f4552433732313a207472616e7366657220746f20746865207a65726f2061646460008301527f72657373000000000000000000000000000000000000000000000000000000006020830152604082019050919050565b6000612df360198361383e565b91507f4552433732313a20617070726f766520746f2063616c6c6572000000000000006000830152602082019050919050565b6000612e33602c8361383e565b91507f4552433732313a206f70657261746f7220717565727920666f72206e6f6e657860008301527f697374656e7420746f6b656e00000000000000000000000000000000000000006020830152604082019050919050565b6000612e9960388361383e565b91507f4552433732313a20617070726f76652063616c6c6572206973206e6f74206f7760008301527f6e6572206e6f7220617070726f76656420666f7220616c6c00000000000000006020830152604082019050919050565b6000612eff602a8361383e565b91507f4552433732313a2062616c616e636520717565727920666f7220746865207a6560008301527f726f2061646472657373000000000000000000000000000000000000000000006020830152604082019050919050565b6000612f6560298361383e565b91507f4552433732313a206f776e657220717565727920666f72206e6f6e657869737460008301527f656e7420746f6b656e00000000000000000000000000000000000000000000006020830152604082019050919050565b6000612fcb602e8361383e565b91507f45524337323155524953746f726167653a2055524920736574206f66206e6f6e60008301527f6578697374656e7420746f6b656e0000000000000000000000000000000000006020830152604082019050919050565b600061303160208361383e565b91507f4552433732313a206d696e7420746f20746865207a65726f20616464726573736000830152602082019050919050565b600061307160318361383e565b91507f45524337323155524953746f726167653a2055524920717565727920666f722060008301527f6e6f6e6578697374656e7420746f6b656e0000000000000000000000000000006020830152604082019050919050565b60006130d7602c8361383e565b91507f4552433732313a20617070726f76656420717565727920666f72206e6f6e657860008301527f697374656e7420746f6b656e00000000000000000000000000000000000000006020830152604082019050919050565b600061313d60208361383e565b91507f4f776e61626c653a2063616c6c6572206973206e6f7420746865206f776e65726000830152602082019050919050565b600061317d60298361383e565b91507f4552433732313a207472616e73666572206f6620746f6b656e2074686174206960008301527f73206e6f74206f776e00000000000000000000000000000000000000000000006020830152604082019050919050565b60006131e3602f8361383e565b91507f4552433732314d657461646174613a2055524920717565727920666f72206e6f60008301527f6e6578697374656e7420746f6b656e00000000000000000000000000000000006020830152604082019050919050565b600061324960218361383e565b91507f4552433732313a20617070726f76616c20746f2063757272656e74206f776e6560008301527f72000000000000000000000000000000000000000000000000000000000000006020830152604082019050919050565b60006132af60248361383e565b91507f52464f58434f6c6c656374696f6e3a2060746f6b656e5552495f60206973206560008301527f6d707479000000000000000000000000000000000000000000000000000000006020830152604082019050919050565b600061331560318361383e565b91507f4552433732313a207472616e736665722063616c6c6572206973206e6f74206f60008301527f776e6572206e6f7220617070726f7665640000000000000000000000000000006020830152604082019050919050565b600061337b602c8361383e565b91507f455243373231456e756d657261626c653a20676c6f62616c20696e646578206f60008301527f7574206f6620626f756e647300000000000000000000000000000000000000006020830152604082019050919050565b6133dd81613991565b82525050565b60006133ef8285612b77565b91506133fb8284612b77565b91508190509392505050565b600060208201905061341c6000830184612ae7565b92915050565b60006080820190506134376000830187612ae7565b6134446020830186612ae7565b61345160408301856133d4565b81810360608301526134638184612b05565b905095945050505050565b60006020820190506134836000830184612af6565b92915050565b600060208201905081810360008301526134a38184612b3e565b905092915050565b600060208201905081810360008301526134c481612ba8565b9050919050565b600060208201905081810360008301526134e481612c0e565b9050919050565b6000602082019050818103600083015261350481612c74565b9050919050565b6000602082019050818103600083015261352481612cda565b9050919050565b6000602082019050818103600083015261354481612d40565b9050919050565b6000602082019050818103600083015261356481612d80565b9050919050565b6000602082019050818103600083015261358481612de6565b9050919050565b600060208201905081810360008301526135a481612e26565b9050919050565b600060208201905081810360008301526135c481612e8c565b9050919050565b600060208201905081810360008301526135e481612ef2565b9050919050565b6000602082019050818103600083015261360481612f58565b9050919050565b6000602082019050818103600083015261362481612fbe565b9050919050565b6000602082019050818103600083015261364481613024565b9050919050565b6000602082019050818103600083015261366481613064565b9050919050565b60006020820190508181036000830152613684816130ca565b9050919050565b600060208201905081810360008301526136a481613130565b9050919050565b600060208201905081810360008301526136c481613170565b9050919050565b600060208201905081810360008301526136e4816131d6565b9050919050565b600060208201905081810360008301526137048161323c565b9050919050565b60006020820190508181036000830152613724816132a2565b9050919050565b6000602082019050818103600083015261374481613308565b9050919050565b600060208201905081810360008301526137648161336e565b9050919050565b600060208201905061378060008301846133d4565b92915050565b6000604051905081810181811067ffffffffffffffff821117156137ad576137ac613b16565b5b8060405250919050565b600067ffffffffffffffff8211156137d2576137d1613b16565b5b601f19601f8301169050602081019050919050565b600067ffffffffffffffff82111561380257613801613b16565b5b601f19601f8301169050602081019050919050565b600081519050919050565b600081519050919050565b600082825260208201905092915050565b600082825260208201905092915050565b600081905092915050565b600061386582613991565b915061387083613991565b9250827fffffffffffffffffffffffffffffffffffffffffffffffffffffffffffffffff038211156138a5576138a4613a89565b5b828201905092915050565b60006138bb82613991565b91506138c683613991565b9250826138d6576138d5613ab8565b5b828204905092915050565b60006138ec82613991565b91506138f783613991565b92508282101561390a57613909613a89565b5b828203905092915050565b600061392082613971565b9050919050565b60008115159050919050565b60007fffffffff0000000000000000000000000000000000000000000000000000000082169050919050565b600061396a82613915565b9050919050565b600073ffffffffffffffffffffffffffffffffffffffff82169050919050565b6000819050919050565b82818337600083830152505050565b60005b838110156139c85780820151818401526020810190506139ad565b838111156139d7576000848401525b50505050565b600060028204905060018216806139f557607f821691505b60208210811415613a0957613a08613ae7565b5b50919050565b6000613a1a82613991565b91507fffffffffffffffffffffffffffffffffffffffffffffffffffffffffffffffff821415613a4d57613a4c613a89565b5b600182019050919050565b6000613a6382613991565b9150613a6e83613991565b925082613a7e57613a7d613ab8565b5b828206905092915050565b7f4e487b7100000000000000000000000000000000000000000000000000000000600052601160045260246000fd5b7f4e487b7100000000000000000000000000000000000000000000000000000000600052601260045260246000fd5b7f4e487b7100000000000000000000000000000000000000000000000000000000600052602260045260246000fd5b7f4e487b7100000000000000000000000000000000000000000000000000000000600052604160045260246000fd5b6000601f19601f8301169050919050565b613b5f81613915565b8114613b6a57600080fd5b50565b613b7681613927565b8114613b8157600080fd5b50565b613b8d81613933565b8114613b9857600080fd5b50565b613ba48161395f565b8114613baf57600080fd5b50565b613bbb81613991565b8114613bc657600080fd5b5056fea2646970667358221220d53d9ecb951c72c4465d6142d4d84be5eb59ff43bb14420c77e605be8d3defb264736f6c63430008000033",
  "linkReferences": {},
  "deployedLinkReferences": {}
}