{
  "_format": "hh-sol-artifact-1",
  "contractName": "RFOXCollection",
  "sourceName": "contracts/RFOXCollection.sol",
  "abi": [
    {
      "inputs": [
        {
          "internalType": "string",
          "name": "contractURI_",
          "type": "string"
        },
        {
          "internalType": "string",
          "name": "name_",
          "type": "string"
        },
        {
          "internalType": "string",
          "name": "symbol_",
          "type": "string"
        },
        {
          "internalType": "address",
          "name": "proxyRegistryAddress_",
          "type": "address"
        }
      ],
      "stateMutability": "nonpayable",
      "type": "constructor"
    },
    {
      "anonymous": false,
      "inputs": [
        {
          "indexed": true,
          "internalType": "address",
          "name": "owner",
          "type": "address"
        },
        {
          "indexed": true,
          "internalType": "address",
          "name": "approved",
          "type": "address"
        },
        {
          "indexed": true,
          "internalType": "uint256",
          "name": "tokenId",
          "type": "uint256"
        }
      ],
      "name": "Approval",
      "type": "event"
    },
    {
      "anonymous": false,
      "inputs": [
        {
          "indexed": true,
          "internalType": "address",
          "name": "owner",
          "type": "address"
        },
        {
          "indexed": true,
          "internalType": "address",
          "name": "operator",
          "type": "address"
        },
        {
          "indexed": false,
          "internalType": "bool",
          "name": "approved",
          "type": "bool"
        }
      ],
      "name": "ApprovalForAll",
      "type": "event"
    },
    {
      "anonymous": false,
      "inputs": [
        {
          "indexed": true,
          "internalType": "address",
          "name": "previousOwner",
          "type": "address"
        },
        {
          "indexed": true,
          "internalType": "address",
          "name": "newOwner",
          "type": "address"
        }
      ],
      "name": "OwnershipTransferred",
      "type": "event"
    },
    {
      "anonymous": false,
      "inputs": [
        {
          "indexed": true,
          "internalType": "address",
          "name": "from",
          "type": "address"
        },
        {
          "indexed": true,
          "internalType": "address",
          "name": "to",
          "type": "address"
        },
        {
          "indexed": true,
          "internalType": "uint256",
          "name": "tokenId",
          "type": "uint256"
        }
      ],
      "name": "Transfer",
      "type": "event"
    },
    {
      "inputs": [
        {
          "internalType": "address",
          "name": "to",
          "type": "address"
        },
        {
          "internalType": "uint256",
          "name": "tokenId",
          "type": "uint256"
        }
      ],
      "name": "approve",
      "outputs": [],
      "stateMutability": "nonpayable",
      "type": "function"
    },
    {
      "inputs": [
        {
          "internalType": "address",
          "name": "owner",
          "type": "address"
        }
      ],
      "name": "balanceOf",
      "outputs": [
        {
          "internalType": "uint256",
          "name": "",
          "type": "uint256"
        }
      ],
      "stateMutability": "view",
      "type": "function"
    },
    {
      "inputs": [],
      "name": "contractURI",
      "outputs": [
        {
          "internalType": "string",
          "name": "",
          "type": "string"
        }
      ],
      "stateMutability": "view",
      "type": "function"
    },
    {
      "inputs": [
        {
          "internalType": "uint256",
          "name": "tokenId",
          "type": "uint256"
        }
      ],
      "name": "getApproved",
      "outputs": [
        {
          "internalType": "address",
          "name": "",
          "type": "address"
        }
      ],
      "stateMutability": "view",
      "type": "function"
    },
    {
      "inputs": [
        {
          "internalType": "address",
          "name": "owner",
          "type": "address"
        },
        {
          "internalType": "address",
          "name": "operator",
          "type": "address"
        }
      ],
      "name": "isApprovedForAll",
      "outputs": [
        {
          "internalType": "bool",
          "name": "",
          "type": "bool"
        }
      ],
      "stateMutability": "view",
      "type": "function"
    },
    {
      "inputs": [],
      "name": "name",
      "outputs": [
        {
          "internalType": "string",
          "name": "",
          "type": "string"
        }
      ],
      "stateMutability": "view",
      "type": "function"
    },
    {
      "inputs": [],
      "name": "owner",
      "outputs": [
        {
          "internalType": "address",
          "name": "",
          "type": "address"
        }
      ],
      "stateMutability": "view",
      "type": "function"
    },
    {
      "inputs": [
        {
          "internalType": "uint256",
          "name": "tokenId",
          "type": "uint256"
        }
      ],
      "name": "ownerOf",
      "outputs": [
        {
          "internalType": "address",
          "name": "",
          "type": "address"
        }
      ],
      "stateMutability": "view",
      "type": "function"
    },
    {
      "inputs": [],
      "name": "renounceOwnership",
      "outputs": [],
      "stateMutability": "nonpayable",
      "type": "function"
    },
    {
      "inputs": [
        {
          "internalType": "address",
          "name": "_to",
          "type": "address"
        },
        {
          "internalType": "string",
          "name": "_tokenURI",
          "type": "string"
        }
      ],
      "name": "safeMint",
      "outputs": [],
      "stateMutability": "nonpayable",
      "type": "function"
    },
    {
      "inputs": [
        {
          "internalType": "address",
          "name": "from",
          "type": "address"
        },
        {
          "internalType": "address",
          "name": "to",
          "type": "address"
        },
        {
          "internalType": "uint256",
          "name": "tokenId",
          "type": "uint256"
        }
      ],
      "name": "safeTransferFrom",
      "outputs": [],
      "stateMutability": "nonpayable",
      "type": "function"
    },
    {
      "inputs": [
        {
          "internalType": "address",
          "name": "from",
          "type": "address"
        },
        {
          "internalType": "address",
          "name": "to",
          "type": "address"
        },
        {
          "internalType": "uint256",
          "name": "tokenId",
          "type": "uint256"
        },
        {
          "internalType": "bytes",
          "name": "_data",
          "type": "bytes"
        }
      ],
      "name": "safeTransferFrom",
      "outputs": [],
      "stateMutability": "nonpayable",
      "type": "function"
    },
    {
      "inputs": [
        {
          "internalType": "address",
          "name": "operator",
          "type": "address"
        },
        {
          "internalType": "bool",
          "name": "approved",
          "type": "bool"
        }
      ],
      "name": "setApprovalForAll",
      "outputs": [],
      "stateMutability": "nonpayable",
      "type": "function"
    },
    {
      "inputs": [
        {
          "internalType": "bytes4",
          "name": "interfaceId",
          "type": "bytes4"
        }
      ],
      "name": "supportsInterface",
      "outputs": [
        {
          "internalType": "bool",
          "name": "",
          "type": "bool"
        }
      ],
      "stateMutability": "view",
      "type": "function"
    },
    {
      "inputs": [],
      "name": "symbol",
      "outputs": [
        {
          "internalType": "string",
          "name": "",
          "type": "string"
        }
      ],
      "stateMutability": "view",
      "type": "function"
    },
    {
      "inputs": [
        {
          "internalType": "uint256",
          "name": "index",
          "type": "uint256"
        }
      ],
      "name": "tokenByIndex",
      "outputs": [
        {
          "internalType": "uint256",
          "name": "",
          "type": "uint256"
        }
      ],
      "stateMutability": "view",
      "type": "function"
    },
    {
      "inputs": [
        {
          "internalType": "address",
          "name": "owner",
          "type": "address"
        },
        {
          "internalType": "uint256",
          "name": "index",
          "type": "uint256"
        }
      ],
      "name": "tokenOfOwnerByIndex",
      "outputs": [
        {
          "internalType": "uint256",
          "name": "",
          "type": "uint256"
        }
      ],
      "stateMutability": "view",
      "type": "function"
    },
    {
      "inputs": [
        {
          "internalType": "uint256",
          "name": "tokenId",
          "type": "uint256"
        }
      ],
      "name": "tokenURI",
      "outputs": [
        {
          "internalType": "string",
          "name": "",
          "type": "string"
        }
      ],
      "stateMutability": "view",
      "type": "function"
    },
    {
      "inputs": [],
      "name": "totalSupply",
      "outputs": [
        {
          "internalType": "uint256",
          "name": "",
          "type": "uint256"
        }
      ],
      "stateMutability": "view",
      "type": "function"
    },
    {
      "inputs": [
        {
          "internalType": "address",
          "name": "from",
          "type": "address"
        },
        {
          "internalType": "address",
          "name": "to",
          "type": "address"
        },
        {
          "internalType": "uint256",
          "name": "tokenId",
          "type": "uint256"
        }
      ],
      "name": "transferFrom",
      "outputs": [],
      "stateMutability": "nonpayable",
      "type": "function"
    },
    {
      "inputs": [
        {
          "internalType": "address",
          "name": "newOwner",
          "type": "address"
        }
      ],
      "name": "transferOwnership",
      "outputs": [],
      "stateMutability": "nonpayable",
      "type": "function"
    }
  ],
  "bytecode": "0x60806040523480156200001157600080fd5b5060405162003ed038038062003ed08339818101604052810190620000379190620002f8565b8282816000908051906020019062000051929190620001bf565b5080600190805190602001906200006a929190620001bf565b5050506200008d62000081620000f160201b60201c565b620000f960201b60201c565b83600c9080519060200190620000a5929190620001bf565b5080600d60006101000a81548173ffffffffffffffffffffffffffffffffffffffff021916908373ffffffffffffffffffffffffffffffffffffffff160217905550505050506200052e565b600033905090565b6000600b60009054906101000a900473ffffffffffffffffffffffffffffffffffffffff16905081600b60006101000a81548173ffffffffffffffffffffffffffffffffffffffff021916908373ffffffffffffffffffffffffffffffffffffffff1602179055508173ffffffffffffffffffffffffffffffffffffffff168173ffffffffffffffffffffffffffffffffffffffff167f8be0079c531659141344cd1fd0a4f28419497f9722a3daafe3b4186f6b6457e060405160405180910390a35050565b828054620001cd9062000480565b90600052602060002090601f016020900481019282620001f157600085556200023d565b82601f106200020c57805160ff19168380011785556200023d565b828001600101855582156200023d579182015b828111156200023c5782518255916020019190600101906200021f565b5b5090506200024c919062000250565b5090565b5b808211156200026b57600081600090555060010162000251565b5090565b6000620002866200028084620003e3565b620003af565b9050828152602081018484840111156200029f57600080fd5b620002ac8482856200044a565b509392505050565b600081519050620002c58162000514565b92915050565b600082601f830112620002dd57600080fd5b8151620002ef8482602086016200026f565b91505092915050565b600080600080608085870312156200030f57600080fd5b600085015167ffffffffffffffff8111156200032a57600080fd5b6200033887828801620002cb565b945050602085015167ffffffffffffffff8111156200035657600080fd5b6200036487828801620002cb565b935050604085015167ffffffffffffffff8111156200038257600080fd5b6200039087828801620002cb565b9250506060620003a387828801620002b4565b91505092959194509250565b6000604051905081810181811067ffffffffffffffff82111715620003d957620003d8620004e5565b5b8060405250919050565b600067ffffffffffffffff821115620004015762000400620004e5565b5b601f19601f8301169050602081019050919050565b600062000423826200042a565b9050919050565b600073ffffffffffffffffffffffffffffffffffffffff82169050919050565b60005b838110156200046a5780820151818401526020810190506200044d565b838111156200047a576000848401525b50505050565b600060028204905060018216806200049957607f821691505b60208210811415620004b057620004af620004b6565b5b50919050565b7f4e487b7100000000000000000000000000000000000000000000000000000000600052602260045260246000fd5b7f4e487b7100000000000000000000000000000000000000000000000000000000600052604160045260246000fd5b6200051f8162000416565b81146200052b57600080fd5b50565b613992806200053e6000396000f3fe608060405234801561001057600080fd5b50600436106101375760003560e01c806370a08231116100b8578063b88d4fde1161007c578063b88d4fde1461034e578063c87b56dd1461036a578063d204c45e1461039a578063e8a3d485146103b6578063e985e9c5146103d4578063f2fde38b1461040457610137565b806370a08231146102bc578063715018a6146102ec5780638da5cb5b146102f657806395d89b4114610314578063a22cb4651461033257610137565b806323b872dd116100ff57806323b872dd146101f45780632f745c591461021057806342842e0e146102405780634f6ccce71461025c5780636352211e1461028c57610137565b806301ffc9a71461013c57806306fdde031461016c578063081812fc1461018a578063095ea7b3146101ba57806318160ddd146101d6575b600080fd5b610156600480360381019061015191906128e2565b610420565b6040516101639190613241565b60405180910390f35b610174610432565b604051610181919061325c565b60405180910390f35b6101a4600480360381019061019f919061295d565b6104c4565b6040516101b191906131da565b60405180910390f35b6101d460048036038101906101cf91906128a6565b610549565b005b6101de610661565b6040516101eb91906134fe565b60405180910390f35b61020e6004803603810190610209919061274c565b61066e565b005b61022a600480360381019061022591906128a6565b6106ce565b60405161023791906134fe565b60405180910390f35b61025a6004803603810190610255919061274c565b610773565b005b6102766004803603810190610271919061295d565b610793565b60405161028391906134fe565b60405180910390f35b6102a660048036038101906102a1919061295d565b61082a565b6040516102b391906131da565b60405180910390f35b6102d660048036038101906102d191906126e7565b6108dc565b6040516102e391906134fe565b60405180910390f35b6102f4610994565b005b6102fe610a1c565b60405161030b91906131da565b60405180910390f35b61031c610a46565b604051610329919061325c565b60405180910390f35b61034c60048036038101906103479190612816565b610ad8565b005b6103686004803603810190610363919061279b565b610c59565b005b610384600480360381019061037f919061295d565b610cbb565b604051610391919061325c565b60405180910390f35b6103b460048036038101906103af9190612852565b610ccd565b005b6103be610d7a565b6040516103cb919061325c565b60405180910390f35b6103ee60048036038101906103e99190612710565b610e0c565b6040516103fb9190613241565b60405180910390f35b61041e600480360381019061041991906126e7565b610f0e565b005b600061042b82611006565b9050919050565b60606000805461044190613770565b80601f016020809104026020016040519081016040528092919081815260200182805461046d90613770565b80156104ba5780601f1061048f576101008083540402835291602001916104ba565b820191906000526020600020905b81548152906001019060200180831161049d57829003601f168201915b5050505050905090565b60006104cf82611080565b61050e576040517f08c379a00000000000000000000000000000000000000000000000000000000081526004016105059061341e565b60405180910390fd5b6004600083815260200190815260200160002060009054906101000a900473ffffffffffffffffffffffffffffffffffffffff169050919050565b60006105548261082a565b90508073ffffffffffffffffffffffffffffffffffffffff168373ffffffffffffffffffffffffffffffffffffffff1614156105c5576040517f08c379a00000000000000000000000000000000000000000000000000000000081526004016105bc9061349e565b60405180910390fd5b8073ffffffffffffffffffffffffffffffffffffffff166105e46110ec565b73ffffffffffffffffffffffffffffffffffffffff16148061061357506106128161060d6110ec565b610e0c565b5b610652576040517f08c379a00000000000000000000000000000000000000000000000000000000081526004016106499061335e565b60405180910390fd5b61065c83836110f4565b505050565b6000600880549050905090565b61067f6106796110ec565b826111ad565b6106be576040517f08c379a00000000000000000000000000000000000000000000000000000000081526004016106b5906134be565b60405180910390fd5b6106c983838361128b565b505050565b60006106d9836108dc565b821061071a576040517f08c379a00000000000000000000000000000000000000000000000000000000081526004016107119061327e565b60405180910390fd5b600660008473ffffffffffffffffffffffffffffffffffffffff1673ffffffffffffffffffffffffffffffffffffffff168152602001908152602001600020600083815260200190815260200160002054905092915050565b61078e83838360405180602001604052806000815250610c59565b505050565b600061079d610661565b82106107de576040517f08c379a00000000000000000000000000000000000000000000000000000000081526004016107d5906134de565b60405180910390fd5b60088281548110610818577f4e487b7100000000000000000000000000000000000000000000000000000000600052603260045260246000fd5b90600052602060002001549050919050565b6000806002600084815260200190815260200160002060009054906101000a900473ffffffffffffffffffffffffffffffffffffffff169050600073ffffffffffffffffffffffffffffffffffffffff168173ffffffffffffffffffffffffffffffffffffffff1614156108d3576040517f08c379a00000000000000000000000000000000000000000000000000000000081526004016108ca9061339e565b60405180910390fd5b80915050919050565b60008073ffffffffffffffffffffffffffffffffffffffff168273ffffffffffffffffffffffffffffffffffffffff16141561094d576040517f08c379a00000000000000000000000000000000000000000000000000000000081526004016109449061337e565b60405180910390fd5b600360008373ffffffffffffffffffffffffffffffffffffffff1673ffffffffffffffffffffffffffffffffffffffff168152602001908152602001600020549050919050565b61099c6110ec565b73ffffffffffffffffffffffffffffffffffffffff166109ba610a1c565b73ffffffffffffffffffffffffffffffffffffffff1614610a10576040517f08c379a0000000000000000000000000000000000000000000000000000000008152600401610a079061343e565b60405180910390fd5b610a1a60006114e7565b565b6000600b60009054906101000a900473ffffffffffffffffffffffffffffffffffffffff16905090565b606060018054610a5590613770565b80601f0160208091040260200160405190810160405280929190818152602001828054610a8190613770565b8015610ace5780601f10610aa357610100808354040283529160200191610ace565b820191906000526020600020905b815481529060010190602001808311610ab157829003601f168201915b5050505050905090565b610ae06110ec565b73ffffffffffffffffffffffffffffffffffffffff168273ffffffffffffffffffffffffffffffffffffffff161415610b4e576040517f08c379a0000000000000000000000000000000000000000000000000000000008152600401610b459061331e565b60405180910390fd5b8060056000610b5b6110ec565b73ffffffffffffffffffffffffffffffffffffffff1673ffffffffffffffffffffffffffffffffffffffff16815260200190815260200160002060008473ffffffffffffffffffffffffffffffffffffffff1673ffffffffffffffffffffffffffffffffffffffff16815260200190815260200160002060006101000a81548160ff0219169083151502179055508173ffffffffffffffffffffffffffffffffffffffff16610c086110ec565b73ffffffffffffffffffffffffffffffffffffffff167f17307eab39ab6107e8899845ad3d59bd9653f200f220920489ca2b5937696c3183604051610c4d9190613241565b60405180910390a35050565b610c6a610c646110ec565b836111ad565b610ca9576040517f08c379a0000000000000000000000000000000000000000000000000000000008152600401610ca0906134be565b60405180910390fd5b610cb5848484846115ad565b50505050565b6060610cc682611609565b9050919050565b610cd56110ec565b73ffffffffffffffffffffffffffffffffffffffff16610cf3610a1c565b73ffffffffffffffffffffffffffffffffffffffff1614610d49576040517f08c379a0000000000000000000000000000000000000000000000000000000008152600401610d409061343e565b60405180910390fd5b6000610d55600e61175b565b9050610d618382611769565b610d6b8183611787565b610d75600e6117fb565b505050565b6060600c8054610d8990613770565b80601f0160208091040260200160405190810160405280929190818152602001828054610db590613770565b8015610e025780601f10610dd757610100808354040283529160200191610e02565b820191906000526020600020905b815481529060010190602001808311610de557829003601f168201915b5050505050905090565b600080600d60009054906101000a900473ffffffffffffffffffffffffffffffffffffffff1690508273ffffffffffffffffffffffffffffffffffffffff168173ffffffffffffffffffffffffffffffffffffffff1663c4552791866040518263ffffffff1660e01b8152600401610e8491906131da565b60206040518083038186803b158015610e9c57600080fd5b505afa158015610eb0573d6000803e3d6000fd5b505050506040513d601f19601f82011682018060405250810190610ed49190612934565b73ffffffffffffffffffffffffffffffffffffffff161415610efa576001915050610f08565b610f048484611811565b9150505b92915050565b610f166110ec565b73ffffffffffffffffffffffffffffffffffffffff16610f34610a1c565b73ffffffffffffffffffffffffffffffffffffffff1614610f8a576040517f08c379a0000000000000000000000000000000000000000000000000000000008152600401610f819061343e565b60405180910390fd5b600073ffffffffffffffffffffffffffffffffffffffff168173ffffffffffffffffffffffffffffffffffffffff161415610ffa576040517f08c379a0000000000000000000000000000000000000000000000000000000008152600401610ff1906132be565b60405180910390fd5b611003816114e7565b50565b60007f780e9d63000000000000000000000000000000000000000000000000000000007bffffffffffffffffffffffffffffffffffffffffffffffffffffffff1916827bffffffffffffffffffffffffffffffffffffffffffffffffffffffff191614806110795750611078826118a5565b5b9050919050565b60008073ffffffffffffffffffffffffffffffffffffffff166002600084815260200190815260200160002060009054906101000a900473ffffffffffffffffffffffffffffffffffffffff1673ffffffffffffffffffffffffffffffffffffffff1614159050919050565b600033905090565b816004600083815260200190815260200160002060006101000a81548173ffffffffffffffffffffffffffffffffffffffff021916908373ffffffffffffffffffffffffffffffffffffffff160217905550808273ffffffffffffffffffffffffffffffffffffffff166111678361082a565b73ffffffffffffffffffffffffffffffffffffffff167f8c5be1e5ebec7d5bd14f71427d1e84f3dd0314c0f7b2291e5b200ac8c7c3b92560405160405180910390a45050565b60006111b882611080565b6111f7576040517f08c379a00000000000000000000000000000000000000000000000000000000081526004016111ee9061333e565b60405180910390fd5b60006112028361082a565b90508073ffffffffffffffffffffffffffffffffffffffff168473ffffffffffffffffffffffffffffffffffffffff16148061127157508373ffffffffffffffffffffffffffffffffffffffff16611259846104c4565b73ffffffffffffffffffffffffffffffffffffffff16145b8061128257506112818185610e0c565b5b91505092915050565b8273ffffffffffffffffffffffffffffffffffffffff166112ab8261082a565b73ffffffffffffffffffffffffffffffffffffffff1614611301576040517f08c379a00000000000000000000000000000000000000000000000000000000081526004016112f89061345e565b60405180910390fd5b600073ffffffffffffffffffffffffffffffffffffffff168273ffffffffffffffffffffffffffffffffffffffff161415611371576040517f08c379a0000000000000000000000000000000000000000000000000000000008152600401611368906132fe565b60405180910390fd5b61137c838383611987565b6113876000826110f4565b6001600360008573ffffffffffffffffffffffffffffffffffffffff1673ffffffffffffffffffffffffffffffffffffffff16815260200190815260200160002060008282546113d79190613674565b925050819055506001600360008473ffffffffffffffffffffffffffffffffffffffff1673ffffffffffffffffffffffffffffffffffffffff168152602001908152602001600020600082825461142e91906135ed565b92505081905550816002600083815260200190815260200160002060006101000a81548173ffffffffffffffffffffffffffffffffffffffff021916908373ffffffffffffffffffffffffffffffffffffffff160217905550808273ffffffffffffffffffffffffffffffffffffffff168473ffffffffffffffffffffffffffffffffffffffff167fddf252ad1be2c89b69c2b068fc378daa952ba7f163c4a11628f55a4df523b3ef60405160405180910390a4505050565b6000600b60009054906101000a900473ffffffffffffffffffffffffffffffffffffffff16905081600b60006101000a81548173ffffffffffffffffffffffffffffffffffffffff021916908373ffffffffffffffffffffffffffffffffffffffff1602179055508173ffffffffffffffffffffffffffffffffffffffff168173ffffffffffffffffffffffffffffffffffffffff167f8be0079c531659141344cd1fd0a4f28419497f9722a3daafe3b4186f6b6457e060405160405180910390a35050565b6115b884848461128b565b6115c484848484611997565b611603576040517f08c379a00000000000000000000000000000000000000000000000000000000081526004016115fa9061329e565b60405180910390fd5b50505050565b606061161482611080565b611653576040517f08c379a000000000000000000000000000000000000000000000000000000000815260040161164a906133fe565b60405180910390fd5b6000600a6000848152602001908152602001600020805461167390613770565b80601f016020809104026020016040519081016040528092919081815260200182805461169f90613770565b80156116ec5780601f106116c1576101008083540402835291602001916116ec565b820191906000526020600020905b8154815290600101906020018083116116cf57829003601f168201915b5050505050905060006116fd611b2e565b9050600081511415611713578192505050611756565b6000825111156117485780826040516020016117309291906131b6565b60405160208183030381529060405292505050611756565b61175184611b6b565b925050505b919050565b600081600001549050919050565b611783828260405180602001604052806000815250611c12565b5050565b61179082611080565b6117cf576040517f08c379a00000000000000000000000000000000000000000000000000000000081526004016117c6906133be565b60405180910390fd5b80600a600084815260200190815260200160002090805190602001906117f69291906124f6565b505050565b6001816000016000828254019250508190555050565b6000600560008473ffffffffffffffffffffffffffffffffffffffff1673ffffffffffffffffffffffffffffffffffffffff16815260200190815260200160002060008373ffffffffffffffffffffffffffffffffffffffff1673ffffffffffffffffffffffffffffffffffffffff16815260200190815260200160002060009054906101000a900460ff16905092915050565b60007f80ac58cd000000000000000000000000000000000000000000000000000000007bffffffffffffffffffffffffffffffffffffffffffffffffffffffff1916827bffffffffffffffffffffffffffffffffffffffffffffffffffffffff1916148061197057507f5b5e139f000000000000000000000000000000000000000000000000000000007bffffffffffffffffffffffffffffffffffffffffffffffffffffffff1916827bffffffffffffffffffffffffffffffffffffffffffffffffffffffff1916145b80611980575061197f82611c6d565b5b9050919050565b611992838383611cd7565b505050565b60006119b88473ffffffffffffffffffffffffffffffffffffffff16611deb565b15611b21578373ffffffffffffffffffffffffffffffffffffffff1663150b7a026119e16110ec565b8786866040518563ffffffff1660e01b8152600401611a0394939291906131f5565b602060405180830381600087803b158015611a1d57600080fd5b505af1925050508015611a4e57506040513d601f19601f82011682018060405250810190611a4b919061290b565b60015b611ad1573d8060008114611a7e576040519150601f19603f3d011682016040523d82523d6000602084013e611a83565b606091505b50600081511415611ac9576040517f08c379a0000000000000000000000000000000000000000000000000000000008152600401611ac09061329e565b60405180910390fd5b805181602001fd5b63150b7a0260e01b7bffffffffffffffffffffffffffffffffffffffffffffffffffffffff1916817bffffffffffffffffffffffffffffffffffffffffffffffffffffffff191614915050611b26565b600190505b949350505050565b60606040518060400160405280600781526020017f697066733a2f2f00000000000000000000000000000000000000000000000000815250905090565b6060611b7682611080565b611bb5576040517f08c379a0000000000000000000000000000000000000000000000000000000008152600401611bac9061347e565b60405180910390fd5b6000611bbf611b2e565b90506000815111611bdf5760405180602001604052806000815250611c0a565b80611be984611dfe565b604051602001611bfa9291906131b6565b6040516020818303038152906040525b915050919050565b611c1c8383611fab565b611c296000848484611997565b611c68576040517f08c379a0000000000000000000000000000000000000000000000000000000008152600401611c5f9061329e565b60405180910390fd5b505050565b60007f01ffc9a7000000000000000000000000000000000000000000000000000000007bffffffffffffffffffffffffffffffffffffffffffffffffffffffff1916827bffffffffffffffffffffffffffffffffffffffffffffffffffffffff1916149050919050565b611ce2838383612179565b600073ffffffffffffffffffffffffffffffffffffffff168373ffffffffffffffffffffffffffffffffffffffff161415611d2557611d208161217e565b611d64565b8173ffffffffffffffffffffffffffffffffffffffff168373ffffffffffffffffffffffffffffffffffffffff1614611d6357611d6283826121c7565b5b5b600073ffffffffffffffffffffffffffffffffffffffff168273ffffffffffffffffffffffffffffffffffffffff161415611da757611da281612334565b611de6565b8273ffffffffffffffffffffffffffffffffffffffff168273ffffffffffffffffffffffffffffffffffffffff1614611de557611de48282612477565b5b5b505050565b600080823b905060008111915050919050565b60606000821415611e46576040518060400160405280600181526020017f30000000000000000000000000000000000000000000000000000000000000008152509050611fa6565b600082905060005b60008214611e78578080611e61906137a2565b915050600a82611e719190613643565b9150611e4e565b60008167ffffffffffffffff811115611eba577f4e487b7100000000000000000000000000000000000000000000000000000000600052604160045260246000fd5b6040519080825280601f01601f191660200182016040528015611eec5781602001600182028036833780820191505090505b5090505b60008514611f9f57600182611f059190613674565b9150600a85611f1491906137eb565b6030611f2091906135ed565b60f81b818381518110611f5c577f4e487b7100000000000000000000000000000000000000000000000000000000600052603260045260246000fd5b60200101907effffffffffffffffffffffffffffffffffffffffffffffffffffffffffffff1916908160001a905350600a85611f989190613643565b9450611ef0565b8093505050505b919050565b600073ffffffffffffffffffffffffffffffffffffffff168273ffffffffffffffffffffffffffffffffffffffff16141561201b576040517f08c379a0000000000000000000000000000000000000000000000000000000008152600401612012906133de565b60405180910390fd5b61202481611080565b15612064576040517f08c379a000000000000000000000000000000000000000000000000000000000815260040161205b906132de565b60405180910390fd5b61207060008383611987565b6001600360008473ffffffffffffffffffffffffffffffffffffffff1673ffffffffffffffffffffffffffffffffffffffff16815260200190815260200160002060008282546120c091906135ed565b92505081905550816002600083815260200190815260200160002060006101000a81548173ffffffffffffffffffffffffffffffffffffffff021916908373ffffffffffffffffffffffffffffffffffffffff160217905550808273ffffffffffffffffffffffffffffffffffffffff16600073ffffffffffffffffffffffffffffffffffffffff167fddf252ad1be2c89b69c2b068fc378daa952ba7f163c4a11628f55a4df523b3ef60405160405180910390a45050565b505050565b6008805490506009600083815260200190815260200160002081905550600881908060018154018082558091505060019003906000526020600020016000909190919091505550565b600060016121d4846108dc565b6121de9190613674565b90506000600760008481526020019081526020016000205490508181146122c3576000600660008673ffffffffffffffffffffffffffffffffffffffff1673ffffffffffffffffffffffffffffffffffffffff168152602001908152602001600020600084815260200190815260200160002054905080600660008773ffffffffffffffffffffffffffffffffffffffff1673ffffffffffffffffffffffffffffffffffffffff168152602001908152602001600020600084815260200190815260200160002081905550816007600083815260200190815260200160002081905550505b6007600084815260200190815260200160002060009055600660008573ffffffffffffffffffffffffffffffffffffffff1673ffffffffffffffffffffffffffffffffffffffff16815260200190815260200160002060008381526020019081526020016000206000905550505050565b600060016008805490506123489190613674565b905060006009600084815260200190815260200160002054905060006008838154811061239e577f4e487b7100000000000000000000000000000000000000000000000000000000600052603260045260246000fd5b9060005260206000200154905080600883815481106123e6577f4e487b7100000000000000000000000000000000000000000000000000000000600052603260045260246000fd5b90600052602060002001819055508160096000838152602001908152602001600020819055506009600085815260200190815260200160002060009055600880548061245b577f4e487b7100000000000000000000000000000000000000000000000000000000600052603160045260246000fd5b6001900381819060005260206000200160009055905550505050565b6000612482836108dc565b905081600660008573ffffffffffffffffffffffffffffffffffffffff1673ffffffffffffffffffffffffffffffffffffffff168152602001908152602001600020600083815260200190815260200160002081905550806007600084815260200190815260200160002081905550505050565b82805461250290613770565b90600052602060002090601f016020900481019282612524576000855561256b565b82601f1061253d57805160ff191683800117855561256b565b8280016001018555821561256b579182015b8281111561256a57825182559160200191906001019061254f565b5b509050612578919061257c565b5090565b5b8082111561259557600081600090555060010161257d565b5090565b60006125ac6125a78461354a565b613519565b9050828152602081018484840111156125c457600080fd5b6125cf84828561372e565b509392505050565b60006125ea6125e58461357a565b613519565b90508281526020810184848401111561260257600080fd5b61260d84828561372e565b509392505050565b600081359050612624816138e9565b92915050565b60008135905061263981613900565b92915050565b60008135905061264e81613917565b92915050565b60008151905061266381613917565b92915050565b600082601f83011261267a57600080fd5b813561268a848260208601612599565b91505092915050565b6000815190506126a28161392e565b92915050565b600082601f8301126126b957600080fd5b81356126c98482602086016125d7565b91505092915050565b6000813590506126e181613945565b92915050565b6000602082840312156126f957600080fd5b600061270784828501612615565b91505092915050565b6000806040838503121561272357600080fd5b600061273185828601612615565b925050602061274285828601612615565b9150509250929050565b60008060006060848603121561276157600080fd5b600061276f86828701612615565b935050602061278086828701612615565b9250506040612791868287016126d2565b9150509250925092565b600080600080608085870312156127b157600080fd5b60006127bf87828801612615565b94505060206127d087828801612615565b93505060406127e1878288016126d2565b925050606085013567ffffffffffffffff8111156127fe57600080fd5b61280a87828801612669565b91505092959194509250565b6000806040838503121561282957600080fd5b600061283785828601612615565b92505060206128488582860161262a565b9150509250929050565b6000806040838503121561286557600080fd5b600061287385828601612615565b925050602083013567ffffffffffffffff81111561289057600080fd5b61289c858286016126a8565b9150509250929050565b600080604083850312156128b957600080fd5b60006128c785828601612615565b92505060206128d8858286016126d2565b9150509250929050565b6000602082840312156128f457600080fd5b60006129028482850161263f565b91505092915050565b60006020828403121561291d57600080fd5b600061292b84828501612654565b91505092915050565b60006020828403121561294657600080fd5b600061295484828501612693565b91505092915050565b60006020828403121561296f57600080fd5b600061297d848285016126d2565b91505092915050565b61298f816136a8565b82525050565b61299e816136ba565b82525050565b60006129af826135aa565b6129b981856135c0565b93506129c981856020860161373d565b6129d2816138d8565b840191505092915050565b60006129e8826135b5565b6129f281856135d1565b9350612a0281856020860161373d565b612a0b816138d8565b840191505092915050565b6000612a21826135b5565b612a2b81856135e2565b9350612a3b81856020860161373d565b80840191505092915050565b6000612a54602b836135d1565b91507f455243373231456e756d657261626c653a206f776e657220696e646578206f7560008301527f74206f6620626f756e64730000000000000000000000000000000000000000006020830152604082019050919050565b6000612aba6032836135d1565b91507f4552433732313a207472616e7366657220746f206e6f6e20455243373231526560008301527f63656976657220696d706c656d656e74657200000000000000000000000000006020830152604082019050919050565b6000612b206026836135d1565b91507f4f776e61626c653a206e6577206f776e657220697320746865207a65726f206160008301527f64647265737300000000000000000000000000000000000000000000000000006020830152604082019050919050565b6000612b86601c836135d1565b91507f4552433732313a20746f6b656e20616c7265616479206d696e746564000000006000830152602082019050919050565b6000612bc66024836135d1565b91507f4552433732313a207472616e7366657220746f20746865207a65726f2061646460008301527f72657373000000000000000000000000000000000000000000000000000000006020830152604082019050919050565b6000612c2c6019836135d1565b91507f4552433732313a20617070726f766520746f2063616c6c6572000000000000006000830152602082019050919050565b6000612c6c602c836135d1565b91507f4552433732313a206f70657261746f7220717565727920666f72206e6f6e657860008301527f697374656e7420746f6b656e00000000000000000000000000000000000000006020830152604082019050919050565b6000612cd26038836135d1565b91507f4552433732313a20617070726f76652063616c6c6572206973206e6f74206f7760008301527f6e6572206e6f7220617070726f76656420666f7220616c6c00000000000000006020830152604082019050919050565b6000612d38602a836135d1565b91507f4552433732313a2062616c616e636520717565727920666f7220746865207a6560008301527f726f2061646472657373000000000000000000000000000000000000000000006020830152604082019050919050565b6000612d9e6029836135d1565b91507f4552433732313a206f776e657220717565727920666f72206e6f6e657869737460008301527f656e7420746f6b656e00000000000000000000000000000000000000000000006020830152604082019050919050565b6000612e04602e836135d1565b91507f45524337323155524953746f726167653a2055524920736574206f66206e6f6e60008301527f6578697374656e7420746f6b656e0000000000000000000000000000000000006020830152604082019050919050565b6000612e6a6020836135d1565b91507f4552433732313a206d696e7420746f20746865207a65726f20616464726573736000830152602082019050919050565b6000612eaa6031836135d1565b91507f45524337323155524953746f726167653a2055524920717565727920666f722060008301527f6e6f6e6578697374656e7420746f6b656e0000000000000000000000000000006020830152604082019050919050565b6000612f10602c836135d1565b91507f4552433732313a20617070726f76656420717565727920666f72206e6f6e657860008301527f697374656e7420746f6b656e00000000000000000000000000000000000000006020830152604082019050919050565b6000612f766020836135d1565b91507f4f776e61626c653a2063616c6c6572206973206e6f7420746865206f776e65726000830152602082019050919050565b6000612fb66029836135d1565b91507f4552433732313a207472616e73666572206f6620746f6b656e2074686174206960008301527f73206e6f74206f776e00000000000000000000000000000000000000000000006020830152604082019050919050565b600061301c602f836135d1565b91507f4552433732314d657461646174613a2055524920717565727920666f72206e6f60008301527f6e6578697374656e7420746f6b656e00000000000000000000000000000000006020830152604082019050919050565b60006130826021836135d1565b91507f4552433732313a20617070726f76616c20746f2063757272656e74206f776e6560008301527f72000000000000000000000000000000000000000000000000000000000000006020830152604082019050919050565b60006130e86031836135d1565b91507f4552433732313a207472616e736665722063616c6c6572206973206e6f74206f60008301527f776e6572206e6f7220617070726f7665640000000000000000000000000000006020830152604082019050919050565b600061314e602c836135d1565b91507f455243373231456e756d657261626c653a20676c6f62616c20696e646578206f60008301527f7574206f6620626f756e647300000000000000000000000000000000000000006020830152604082019050919050565b6131b081613724565b82525050565b60006131c28285612a16565b91506131ce8284612a16565b91508190509392505050565b60006020820190506131ef6000830184612986565b92915050565b600060808201905061320a6000830187612986565b6132176020830186612986565b61322460408301856131a7565b818103606083015261323681846129a4565b905095945050505050565b60006020820190506132566000830184612995565b92915050565b6000602082019050818103600083015261327681846129dd565b905092915050565b6000602082019050818103600083015261329781612a47565b9050919050565b600060208201905081810360008301526132b781612aad565b9050919050565b600060208201905081810360008301526132d781612b13565b9050919050565b600060208201905081810360008301526132f781612b79565b9050919050565b6000602082019050818103600083015261331781612bb9565b9050919050565b6000602082019050818103600083015261333781612c1f565b9050919050565b6000602082019050818103600083015261335781612c5f565b9050919050565b6000602082019050818103600083015261337781612cc5565b9050919050565b6000602082019050818103600083015261339781612d2b565b9050919050565b600060208201905081810360008301526133b781612d91565b9050919050565b600060208201905081810360008301526133d781612df7565b9050919050565b600060208201905081810360008301526133f781612e5d565b9050919050565b6000602082019050818103600083015261341781612e9d565b9050919050565b6000602082019050818103600083015261343781612f03565b9050919050565b6000602082019050818103600083015261345781612f69565b9050919050565b6000602082019050818103600083015261347781612fa9565b9050919050565b600060208201905081810360008301526134978161300f565b9050919050565b600060208201905081810360008301526134b781613075565b9050919050565b600060208201905081810360008301526134d7816130db565b9050919050565b600060208201905081810360008301526134f781613141565b9050919050565b600060208201905061351360008301846131a7565b92915050565b6000604051905081810181811067ffffffffffffffff821117156135405761353f6138a9565b5b8060405250919050565b600067ffffffffffffffff821115613565576135646138a9565b5b601f19601f8301169050602081019050919050565b600067ffffffffffffffff821115613595576135946138a9565b5b601f19601f8301169050602081019050919050565b600081519050919050565b600081519050919050565b600082825260208201905092915050565b600082825260208201905092915050565b600081905092915050565b60006135f882613724565b915061360383613724565b9250827fffffffffffffffffffffffffffffffffffffffffffffffffffffffffffffffff038211156136385761363761381c565b5b828201905092915050565b600061364e82613724565b915061365983613724565b9250826136695761366861384b565b5b828204905092915050565b600061367f82613724565b915061368a83613724565b92508282101561369d5761369c61381c565b5b828203905092915050565b60006136b382613704565b9050919050565b60008115159050919050565b60007fffffffff0000000000000000000000000000000000000000000000000000000082169050919050565b60006136fd826136a8565b9050919050565b600073ffffffffffffffffffffffffffffffffffffffff82169050919050565b6000819050919050565b82818337600083830152505050565b60005b8381101561375b578082015181840152602081019050613740565b8381111561376a576000848401525b50505050565b6000600282049050600182168061378857607f821691505b6020821081141561379c5761379b61387a565b5b50919050565b60006137ad82613724565b91507fffffffffffffffffffffffffffffffffffffffffffffffffffffffffffffffff8214156137e0576137df61381c565b5b600182019050919050565b60006137f682613724565b915061380183613724565b9250826138115761381061384b565b5b828206905092915050565b7f4e487b7100000000000000000000000000000000000000000000000000000000600052601160045260246000fd5b7f4e487b7100000000000000000000000000000000000000000000000000000000600052601260045260246000fd5b7f4e487b7100000000000000000000000000000000000000000000000000000000600052602260045260246000fd5b7f4e487b7100000000000000000000000000000000000000000000000000000000600052604160045260246000fd5b6000601f19601f8301169050919050565b6138f2816136a8565b81146138fd57600080fd5b50565b613909816136ba565b811461391457600080fd5b50565b613920816136c6565b811461392b57600080fd5b50565b613937816136f2565b811461394257600080fd5b50565b61394e81613724565b811461395957600080fd5b5056fea26469706673582212207c98ce1c65e3e49f1cba29f55c72c3a6e7623436409d8cfdabedd9f6042e3c5e64736f6c63430008000033",
  "linkReferences": {},
  "deployedLinkReferences": {}
}