{
  "_format": "hh-sol-artifact-1",
  "contractName": "RFOXCollection",
  "sourceName": "contracts/RFOXCollection.sol",
  "abi": [
    {
      "inputs": [
        {
          "internalType": "string",
          "name": "contractURI_",
          "type": "string"
        },
        {
          "internalType": "string",
          "name": "name_",
          "type": "string"
        },
        {
          "internalType": "string",
          "name": "symbol_",
          "type": "string"
        },
        {
          "internalType": "address",
          "name": "proxyRegistryAddress_",
          "type": "address"
        }
      ],
      "stateMutability": "nonpayable",
      "type": "constructor"
    },
    {
      "anonymous": false,
      "inputs": [
        {
          "indexed": true,
          "internalType": "address",
          "name": "owner",
          "type": "address"
        },
        {
          "indexed": true,
          "internalType": "address",
          "name": "approved",
          "type": "address"
        },
        {
          "indexed": true,
          "internalType": "uint256",
          "name": "tokenId",
          "type": "uint256"
        }
      ],
      "name": "Approval",
      "type": "event"
    },
    {
      "anonymous": false,
      "inputs": [
        {
          "indexed": true,
          "internalType": "address",
          "name": "owner",
          "type": "address"
        },
        {
          "indexed": true,
          "internalType": "address",
          "name": "operator",
          "type": "address"
        },
        {
          "indexed": false,
          "internalType": "bool",
          "name": "approved",
          "type": "bool"
        }
      ],
      "name": "ApprovalForAll",
      "type": "event"
    },
    {
      "anonymous": false,
      "inputs": [
        {
          "indexed": true,
          "internalType": "address",
          "name": "previousOwner",
          "type": "address"
        },
        {
          "indexed": true,
          "internalType": "address",
          "name": "newOwner",
          "type": "address"
        }
      ],
      "name": "OwnershipTransferred",
      "type": "event"
    },
    {
      "anonymous": false,
      "inputs": [
        {
          "indexed": true,
          "internalType": "address",
          "name": "from",
          "type": "address"
        },
        {
          "indexed": true,
          "internalType": "address",
          "name": "to",
          "type": "address"
        },
        {
          "indexed": true,
          "internalType": "uint256",
          "name": "tokenId",
          "type": "uint256"
        }
      ],
      "name": "Transfer",
      "type": "event"
    },
    {
      "inputs": [
        {
          "internalType": "address",
          "name": "to",
          "type": "address"
        },
        {
          "internalType": "uint256",
          "name": "tokenId",
          "type": "uint256"
        }
      ],
      "name": "approve",
      "outputs": [],
      "stateMutability": "nonpayable",
      "type": "function"
    },
    {
      "inputs": [
        {
          "internalType": "address",
          "name": "owner",
          "type": "address"
        }
      ],
      "name": "balanceOf",
      "outputs": [
        {
          "internalType": "uint256",
          "name": "",
          "type": "uint256"
        }
      ],
      "stateMutability": "view",
      "type": "function"
    },
    {
      "inputs": [
        {
          "internalType": "bytes32",
          "name": "c__0x681992c3",
          "type": "bytes32"
        }
      ],
      "name": "c_0x681992c3",
      "outputs": [],
      "stateMutability": "pure",
      "type": "function"
    },
    {
      "inputs": [],
      "name": "contractURI",
      "outputs": [
        {
          "internalType": "string",
          "name": "",
          "type": "string"
        }
      ],
      "stateMutability": "view",
      "type": "function"
    },
    {
      "inputs": [
        {
          "internalType": "uint256",
          "name": "tokenId",
          "type": "uint256"
        }
      ],
      "name": "getApproved",
      "outputs": [
        {
          "internalType": "address",
          "name": "",
          "type": "address"
        }
      ],
      "stateMutability": "view",
      "type": "function"
    },
    {
      "inputs": [
        {
          "internalType": "address",
          "name": "owner",
          "type": "address"
        },
        {
          "internalType": "address",
          "name": "operator",
          "type": "address"
        }
      ],
      "name": "isApprovedForAll",
      "outputs": [
        {
          "internalType": "bool",
          "name": "",
          "type": "bool"
        }
      ],
      "stateMutability": "view",
      "type": "function"
    },
    {
      "inputs": [],
      "name": "name",
      "outputs": [
        {
          "internalType": "string",
          "name": "",
          "type": "string"
        }
      ],
      "stateMutability": "view",
      "type": "function"
    },
    {
      "inputs": [],
      "name": "owner",
      "outputs": [
        {
          "internalType": "address",
          "name": "",
          "type": "address"
        }
      ],
      "stateMutability": "view",
      "type": "function"
    },
    {
      "inputs": [
        {
          "internalType": "uint256",
          "name": "tokenId",
          "type": "uint256"
        }
      ],
      "name": "ownerOf",
      "outputs": [
        {
          "internalType": "address",
          "name": "",
          "type": "address"
        }
      ],
      "stateMutability": "view",
      "type": "function"
    },
    {
      "inputs": [],
      "name": "renounceOwnership",
      "outputs": [],
      "stateMutability": "nonpayable",
      "type": "function"
    },
    {
      "inputs": [
        {
          "internalType": "address",
          "name": "to_",
          "type": "address"
        },
        {
          "internalType": "string",
          "name": "tokenURI_",
          "type": "string"
        }
      ],
      "name": "safeMint",
      "outputs": [],
      "stateMutability": "nonpayable",
      "type": "function"
    },
    {
      "inputs": [
        {
          "internalType": "address",
          "name": "from",
          "type": "address"
        },
        {
          "internalType": "address",
          "name": "to",
          "type": "address"
        },
        {
          "internalType": "uint256",
          "name": "tokenId",
          "type": "uint256"
        }
      ],
      "name": "safeTransferFrom",
      "outputs": [],
      "stateMutability": "nonpayable",
      "type": "function"
    },
    {
      "inputs": [
        {
          "internalType": "address",
          "name": "from",
          "type": "address"
        },
        {
          "internalType": "address",
          "name": "to",
          "type": "address"
        },
        {
          "internalType": "uint256",
          "name": "tokenId",
          "type": "uint256"
        },
        {
          "internalType": "bytes",
          "name": "_data",
          "type": "bytes"
        }
      ],
      "name": "safeTransferFrom",
      "outputs": [],
      "stateMutability": "nonpayable",
      "type": "function"
    },
    {
      "inputs": [
        {
          "internalType": "address",
          "name": "operator",
          "type": "address"
        },
        {
          "internalType": "bool",
          "name": "approved",
          "type": "bool"
        }
      ],
      "name": "setApprovalForAll",
      "outputs": [],
      "stateMutability": "nonpayable",
      "type": "function"
    },
    {
      "inputs": [
        {
          "internalType": "uint256",
          "name": "tokenId_",
          "type": "uint256"
        },
        {
          "internalType": "string",
          "name": "tokenURI_",
          "type": "string"
        }
      ],
      "name": "setTokenURI",
      "outputs": [],
      "stateMutability": "nonpayable",
      "type": "function"
    },
    {
      "inputs": [
        {
          "internalType": "bytes4",
          "name": "interfaceId",
          "type": "bytes4"
        }
      ],
      "name": "supportsInterface",
      "outputs": [
        {
          "internalType": "bool",
          "name": "",
          "type": "bool"
        }
      ],
      "stateMutability": "view",
      "type": "function"
    },
    {
      "inputs": [],
      "name": "symbol",
      "outputs": [
        {
          "internalType": "string",
          "name": "",
          "type": "string"
        }
      ],
      "stateMutability": "view",
      "type": "function"
    },
    {
      "inputs": [
        {
          "internalType": "uint256",
          "name": "index",
          "type": "uint256"
        }
      ],
      "name": "tokenByIndex",
      "outputs": [
        {
          "internalType": "uint256",
          "name": "",
          "type": "uint256"
        }
      ],
      "stateMutability": "view",
      "type": "function"
    },
    {
      "inputs": [
        {
          "internalType": "address",
          "name": "owner",
          "type": "address"
        },
        {
          "internalType": "uint256",
          "name": "index",
          "type": "uint256"
        }
      ],
      "name": "tokenOfOwnerByIndex",
      "outputs": [
        {
          "internalType": "uint256",
          "name": "",
          "type": "uint256"
        }
      ],
      "stateMutability": "view",
      "type": "function"
    },
    {
      "inputs": [
        {
          "internalType": "uint256",
          "name": "tokenId",
          "type": "uint256"
        }
      ],
      "name": "tokenURI",
      "outputs": [
        {
          "internalType": "string",
          "name": "",
          "type": "string"
        }
      ],
      "stateMutability": "view",
      "type": "function"
    },
    {
      "inputs": [],
      "name": "totalSupply",
      "outputs": [
        {
          "internalType": "uint256",
          "name": "",
          "type": "uint256"
        }
      ],
      "stateMutability": "view",
      "type": "function"
    },
    {
      "inputs": [
        {
          "internalType": "address",
          "name": "from",
          "type": "address"
        },
        {
          "internalType": "address",
          "name": "to",
          "type": "address"
        },
        {
          "internalType": "uint256",
          "name": "tokenId",
          "type": "uint256"
        }
      ],
      "name": "transferFrom",
      "outputs": [],
      "stateMutability": "nonpayable",
      "type": "function"
    },
    {
      "inputs": [
        {
          "internalType": "address",
          "name": "newOwner",
          "type": "address"
        }
      ],
      "name": "transferOwnership",
      "outputs": [],
      "stateMutability": "nonpayable",
      "type": "function"
    }
  ],
  "bytecode": "0x60806040523480156200001157600080fd5b5060405162004b6638038062004b668339818101604052810190620000379190620003ff565b8282816000908051906020019062000051929190620002c6565b5080600190805190602001906200006a929190620002c6565b5050506200008d62000081620001f560201b60201c565b620001fd60201b60201c565b620000c17f5716bfd09e97e3a5d19606cd0e4b112803a2e7bf5f4f5d77f4c73f0a2b8fb3da60001b620002c360201b60201c565b620000f57f5cf9ef37afdc9be5e95dbf41b2c13f11598f124641051cbd49c28406f17fa6c660001b620002c360201b60201c565b620001297fd73b628e6bbd859153e5683833622b9dea49e9c28a65c07a7d69d228b1b67e0a60001b620002c360201b60201c565b83600c908051906020019062000141929190620002c6565b50620001767fcda3ebdd6bebd025bb40eb6fb735412b7bbd66b3a04aa17899d37d6c627b7d4c60001b620002c360201b60201c565b620001aa7fa8408d38a70efcc10936db4d502c4280ceb20ead22538da16afa5e46e2a047c560001b620002c360201b60201c565b80600d60006101000a81548173ffffffffffffffffffffffffffffffffffffffff021916908373ffffffffffffffffffffffffffffffffffffffff1602179055505050505062000635565b600033905090565b6000600b60009054906101000a900473ffffffffffffffffffffffffffffffffffffffff16905081600b60006101000a81548173ffffffffffffffffffffffffffffffffffffffff021916908373ffffffffffffffffffffffffffffffffffffffff1602179055508173ffffffffffffffffffffffffffffffffffffffff168173ffffffffffffffffffffffffffffffffffffffff167f8be0079c531659141344cd1fd0a4f28419497f9722a3daafe3b4186f6b6457e060405160405180910390a35050565b50565b828054620002d49062000587565b90600052602060002090601f016020900481019282620002f8576000855562000344565b82601f106200031357805160ff191683800117855562000344565b8280016001018555821562000344579182015b828111156200034357825182559160200191906001019062000326565b5b50905062000353919062000357565b5090565b5b808211156200037257600081600090555060010162000358565b5090565b60006200038d6200038784620004ea565b620004b6565b905082815260208101848484011115620003a657600080fd5b620003b384828562000551565b509392505050565b600081519050620003cc816200061b565b92915050565b600082601f830112620003e457600080fd5b8151620003f684826020860162000376565b91505092915050565b600080600080608085870312156200041657600080fd5b600085015167ffffffffffffffff8111156200043157600080fd5b6200043f87828801620003d2565b945050602085015167ffffffffffffffff8111156200045d57600080fd5b6200046b87828801620003d2565b935050604085015167ffffffffffffffff8111156200048957600080fd5b6200049787828801620003d2565b9250506060620004aa87828801620003bb565b91505092959194509250565b6000604051905081810181811067ffffffffffffffff82111715620004e057620004df620005ec565b5b8060405250919050565b600067ffffffffffffffff821115620005085762000507620005ec565b5b601f19601f8301169050602081019050919050565b60006200052a8262000531565b9050919050565b600073ffffffffffffffffffffffffffffffffffffffff82169050919050565b60005b838110156200057157808201518184015260208101905062000554565b8381111562000581576000848401525b50505050565b60006002820490506001821680620005a057607f821691505b60208210811415620005b757620005b6620005bd565b5b50919050565b7f4e487b7100000000000000000000000000000000000000000000000000000000600052602260045260246000fd5b7f4e487b7100000000000000000000000000000000000000000000000000000000600052604160045260246000fd5b62000626816200051d565b81146200063257600080fd5b50565b61452180620006456000396000f3fe608060405234801561001057600080fd5b506004361061014d5760003560e01c80636352211e116100c3578063b88d4fde1161007c578063b88d4fde1461039c578063c87b56dd146103b8578063d204c45e146103e8578063e8a3d48514610404578063e985e9c514610422578063f2fde38b146104525761014d565b80636352211e146102da57806370a082311461030a578063715018a61461033a5780638da5cb5b1461034457806395d89b4114610362578063a22cb465146103805761014d565b806318160ddd1161011557806318160ddd1461020857806323b872dd146102265780632f745c591461024257806342842e0e146102725780634f6ccce71461028e578063560819e3146102be5761014d565b806301ffc9a71461015257806306fdde0314610182578063081812fc146101a0578063095ea7b3146101d0578063162094c4146101ec575b600080fd5b61016c600480360381019061016791906132f0565b61046e565b6040516101799190613d6f565b60405180910390f35b61018a610504565b6040516101979190613d8a565b60405180910390f35b6101ba60048036038101906101b5919061336b565b610596565b6040516101c79190613d08565b60405180910390f35b6101ea60048036038101906101e5919061328b565b61061b565b005b61020660048036038101906102019190613394565b610733565b005b6102106109b9565b60405161021d919061406c565b60405180910390f35b610240600480360381019061023b9190613131565b6109c6565b005b61025c6004803603810190610257919061328b565b610a26565b604051610269919061406c565b60405180910390f35b61028c60048036038101906102879190613131565b610acb565b005b6102a860048036038101906102a3919061336b565b610aeb565b6040516102b5919061406c565b60405180910390f35b6102d860048036038101906102d391906132c7565b610b82565b005b6102f460048036038101906102ef919061336b565b610b85565b6040516103019190613d08565b60405180910390f35b610324600480360381019061031f91906130cc565b610c37565b604051610331919061406c565b60405180910390f35b610342610cef565b005b61034c610d77565b6040516103599190613d08565b60405180910390f35b61036a610da1565b6040516103779190613d8a565b60405180910390f35b61039a600480360381019061039591906131fb565b610e33565b005b6103b660048036038101906103b19190613180565b610fb4565b005b6103d260048036038101906103cd919061336b565b611016565b6040516103df9190613d8a565b60405180910390f35b61040260048036038101906103fd9190613237565b6110ac565b005b61040c6113d9565b6040516104199190613d8a565b60405180910390f35b61043c600480360381019061043791906130f5565b6114ef565b6040516104499190613d6f565b60405180910390f35b61046c600480360381019061046791906130cc565b6117d6565b005b600061049c7f3e7879bee2bf0cd9da692c23c6eda8042f1a216927f6f79451e36345550b440760001b610b82565b6104c87f5615ebffdacd54b2e46d8fd9a10aa7e8116ae88c1d4bd422b39201b3b236a9e560001b610b82565b6104f47ff1411aa09d97edea71795d24682ffdb7e73cdcd0b880b93266cae5cb9ea8ef0a60001b610b82565b6104fd826118ce565b9050919050565b606060008054610513906142e8565b80601f016020809104026020016040519081016040528092919081815260200182805461053f906142e8565b801561058c5780601f106105615761010080835404028352916020019161058c565b820191906000526020600020905b81548152906001019060200180831161056f57829003601f168201915b5050505050905090565b60006105a182611948565b6105e0576040517f08c379a00000000000000000000000000000000000000000000000000000000081526004016105d790613f6c565b60405180910390fd5b6004600083815260200190815260200160002060009054906101000a900473ffffffffffffffffffffffffffffffffffffffff169050919050565b600061062682610b85565b90508073ffffffffffffffffffffffffffffffffffffffff168373ffffffffffffffffffffffffffffffffffffffff161415610697576040517f08c379a000000000000000000000000000000000000000000000000000000000815260040161068e90613fec565b60405180910390fd5b8073ffffffffffffffffffffffffffffffffffffffff166106b66119b4565b73ffffffffffffffffffffffffffffffffffffffff1614806106e557506106e4816106df6119b4565b6114ef565b5b610724576040517f08c379a000000000000000000000000000000000000000000000000000000000815260040161071b90613eac565b60405180910390fd5b61072e83836119bc565b505050565b61075f7f30893796cbecb58c2ce1245020cccfa3492ed4ebf89508908e2ef7c63d0d7c1960001b610b82565b61078b7feee906c6d7e854827ea6d5bfe68d09cdb57bbcfc704a669dca74d34f75318b6360001b610b82565b6107b77f41d3e193eec94889569ed150962205d87e7efd3ba4a7b63c461697986c2267eb60001b610b82565b6107e37fb564c6dc3d10d7898a3a84addb12cc7708c734c6e2164987aa548702739d8ece60001b610b82565b6107f46107ee6119b4565b83611a75565b610833576040517f08c379a000000000000000000000000000000000000000000000000000000000815260040161082a90613dec565b60405180910390fd5b61085f7f5a6ea3b15c60d4956b14170607d9c073cae01c50b71385526ab6d5171b6e67bf60001b610b82565b61088b7f92b88c7762dabaf7d789f8349e2348a777309ad2b5bfb6493a998c09f127625560001b610b82565b6108b77f6870c1042c33322a1cb96fc5e5aecc43aac77700eca78460f41119cca988f85060001b610b82565b6108e37fe7c21ad29d9684df982836ebcb44fd507377415ed9ed29c64320f336765629d860001b610b82565b6000815111610927576040517f08c379a000000000000000000000000000000000000000000000000000000000815260040161091e9061400c565b60405180910390fd5b6109537fd17ec2fc393ee233dec7113ab8dc650d2aabf5065799e72e49d39748c22b705a60001b610b82565b61097f7fb3eae26d68e3ec31f1faec0d49190f02945bf44d45c5ae6f9a91503ca8c35e0360001b610b82565b6109ab7ff80bf44c27cfdb860c9673b42b78b177c7f370c6e933578b01d51b2254b1ae1460001b610b82565b6109b58282611b53565b5050565b6000600880549050905090565b6109d76109d16119b4565b82611a75565b610a16576040517f08c379a0000000000000000000000000000000000000000000000000000000008152600401610a0d9061402c565b60405180910390fd5b610a21838383611bc7565b505050565b6000610a3183610c37565b8210610a72576040517f08c379a0000000000000000000000000000000000000000000000000000000008152600401610a6990613dac565b60405180910390fd5b600660008473ffffffffffffffffffffffffffffffffffffffff1673ffffffffffffffffffffffffffffffffffffffff168152602001908152602001600020600083815260200190815260200160002054905092915050565b610ae683838360405180602001604052806000815250610fb4565b505050565b6000610af56109b9565b8210610b36576040517f08c379a0000000000000000000000000000000000000000000000000000000008152600401610b2d9061404c565b60405180910390fd5b60088281548110610b70577f4e487b7100000000000000000000000000000000000000000000000000000000600052603260045260246000fd5b90600052602060002001549050919050565b50565b6000806002600084815260200190815260200160002060009054906101000a900473ffffffffffffffffffffffffffffffffffffffff169050600073ffffffffffffffffffffffffffffffffffffffff168173ffffffffffffffffffffffffffffffffffffffff161415610c2e576040517f08c379a0000000000000000000000000000000000000000000000000000000008152600401610c2590613eec565b60405180910390fd5b80915050919050565b60008073ffffffffffffffffffffffffffffffffffffffff168273ffffffffffffffffffffffffffffffffffffffff161415610ca8576040517f08c379a0000000000000000000000000000000000000000000000000000000008152600401610c9f90613ecc565b60405180910390fd5b600360008373ffffffffffffffffffffffffffffffffffffffff1673ffffffffffffffffffffffffffffffffffffffff168152602001908152602001600020549050919050565b610cf76119b4565b73ffffffffffffffffffffffffffffffffffffffff16610d15610d77565b73ffffffffffffffffffffffffffffffffffffffff1614610d6b576040517f08c379a0000000000000000000000000000000000000000000000000000000008152600401610d6290613f8c565b60405180910390fd5b610d756000611e23565b565b6000600b60009054906101000a900473ffffffffffffffffffffffffffffffffffffffff16905090565b606060018054610db0906142e8565b80601f0160208091040260200160405190810160405280929190818152602001828054610ddc906142e8565b8015610e295780601f10610dfe57610100808354040283529160200191610e29565b820191906000526020600020905b815481529060010190602001808311610e0c57829003601f168201915b5050505050905090565b610e3b6119b4565b73ffffffffffffffffffffffffffffffffffffffff168273ffffffffffffffffffffffffffffffffffffffff161415610ea9576040517f08c379a0000000000000000000000000000000000000000000000000000000008152600401610ea090613e6c565b60405180910390fd5b8060056000610eb66119b4565b73ffffffffffffffffffffffffffffffffffffffff1673ffffffffffffffffffffffffffffffffffffffff16815260200190815260200160002060008473ffffffffffffffffffffffffffffffffffffffff1673ffffffffffffffffffffffffffffffffffffffff16815260200190815260200160002060006101000a81548160ff0219169083151502179055508173ffffffffffffffffffffffffffffffffffffffff16610f636119b4565b73ffffffffffffffffffffffffffffffffffffffff167f17307eab39ab6107e8899845ad3d59bd9653f200f220920489ca2b5937696c3183604051610fa89190613d6f565b60405180910390a35050565b610fc5610fbf6119b4565b83611a75565b611004576040517f08c379a0000000000000000000000000000000000000000000000000000000008152600401610ffb9061402c565b60405180910390fd5b61101084848484611ee9565b50505050565b60606110447f67194e7951aa4cc23f71060ce3ffc9822477babcff4362c9361f7897011d95fc60001b610b82565b6110707f2e0c44dbce1af4bb445cdf2f06368e9872f739d329b2f15addf7bdc4309b0abb60001b610b82565b61109c7f6fb51fbb077b1c1962a9dc01c61d0122e43cf5246b8c0de99e6b283564dfac4360001b610b82565b6110a582611f45565b9050919050565b6110b46119b4565b73ffffffffffffffffffffffffffffffffffffffff166110d2610d77565b73ffffffffffffffffffffffffffffffffffffffff1614611128576040517f08c379a000000000000000000000000000000000000000000000000000000000815260040161111f90613f8c565b60405180910390fd5b6111547fac43795fbbbaae6eb14c63f73fdcf5cccccd14624931192b0dc60beb2225614960001b610b82565b6111807f35dceba0cb50b3b0572614ef8136fe7bdc8df146dfee95eb2fe796c3036c271e60001b610b82565b6111ac7f5b90d5fa21cc04c3dbf9eeed2e5dac0b191b1647dd2d2417a666c91110f393a060001b610b82565b6111d87f1bd51367a6fc8a880ffef7163d6c21bd8551d5f40a3024b99236d9e16263664e60001b610b82565b600081511161121c576040517f08c379a00000000000000000000000000000000000000000000000000000000081526004016112139061400c565b60405180910390fd5b6112487f502169c0885b064e58c5a5326dce58131f56a20638f83dc5a10a20eb53d5a6d660001b610b82565b6112747fb353c13a7df2dbe8c38fb6f2b4b71b2d6645843cbde614aeb9aa4f42be23a85960001b610b82565b6112a07ff8b34a2d825e79f6cb147e5395101a7294d215938892b5708bd2e45ffc548ada60001b610b82565b60006112ac600e612097565b90506112da7fc33aaaa652e8bff401dee42971bf76edb8d89f762fc35cf822f09d62a10e995260001b610b82565b6113067f070ef287e8e39fa6535e7c3847b6cce1ed1280f23c51e830e1370740176167fe60001b610b82565b61131083826120a5565b61133c7fea05b811fd0f0cc6b0bdda76b167cd44ff8e13c8e6c20acd82dc2429161eb09a60001b610b82565b6113687f49c2b90e6185df3df07d7ab7fdaf0250438b1e92ad1555d17d1febbbb8a5931f60001b610b82565b6113728183611b53565b61139e7f70fb0c684ff39a3873959992d5a1966a87627eb923627e2dc781e1719d7b790060001b610b82565b6113ca7f6793125a5d89d39e86e3f923694af070923b5565513911f86f2100b3d0c7b1d960001b610b82565b6113d4600e6120c3565b505050565b60606114077f6fab46dda7112901d5e3df58b32c9dbdaba6b94110b1420606111c549c114c8560001b610b82565b6114337f3cef5c0e8f5d6d1b1fea35edb8c512ee20c1fc0eef79476d05aa434939d464d360001b610b82565b61145f7fdb0455f409b91be12592e42e8ee7b337e95e7d87a63745defc30932dfe1a7f9460001b610b82565b600c805461146c906142e8565b80601f0160208091040260200160405190810160405280929190818152602001828054611498906142e8565b80156114e55780601f106114ba576101008083540402835291602001916114e5565b820191906000526020600020905b8154815290600101906020018083116114c857829003601f168201915b5050505050905090565b600061151d7fb315ab3cb6328a160ff482252159c2624427ec7ec37157afc965040000e6048560001b610b82565b6115497fe87c5d7ae0f24c28904b0fae2e2bf643c30e8d169e797040c2ccbe903f1e60e960001b610b82565b6115757f28e6de6b38f5b127863056430e3b310039705dae73c4c27289eef36942c85e2260001b610b82565b6000600d60009054906101000a900473ffffffffffffffffffffffffffffffffffffffff1690506115c87f71a033fe2b835a6677d53c68a2777f512639ec9f12692a98b9cfb0f49107abe360001b610b82565b6115f47f4aab0c8ada7623d521b9edb7b3a4a80b8d99583496da8954dd083be30e3bc71c60001b610b82565b8273ffffffffffffffffffffffffffffffffffffffff168173ffffffffffffffffffffffffffffffffffffffff1663c4552791866040518263ffffffff1660e01b81526004016116449190613d08565b60206040518083038186803b15801561165c57600080fd5b505afa158015611670573d6000803e3d6000fd5b505050506040513d601f19601f820116820180604052508101906116949190613342565b73ffffffffffffffffffffffffffffffffffffffff16141561173e576116dc7fb384a8bf52f70f816e2865cde532a3807aa42d75ae2dfed62753d2a28a0b114d60001b610b82565b6117087fc522b00c904ca01289f3f785affc91308d623f9b39532dabbffa6ec30181a6fc60001b610b82565b6117347f043b5088bbbbb87d10f31701e7150f41b26c0923656266c6d3fdad67ade8f72d60001b610b82565b60019150506117d0565b61176a7fbe8c3df9f747bf2ae54c792ab7f2d9a24ed99d097ed770eb3dd911d73cb6db0b60001b610b82565b6117967ff1ad4f81b7cacd1c5ef2bb4cecce662a2251931d45f7908ec37ebe9580b31b6c60001b610b82565b6117c27f11171540c5dbdbe9bee07e1d73894e8dcdfa8fd737a143ff0ac217989060b18e60001b610b82565b6117cc84846120d9565b9150505b92915050565b6117de6119b4565b73ffffffffffffffffffffffffffffffffffffffff166117fc610d77565b73ffffffffffffffffffffffffffffffffffffffff1614611852576040517f08c379a000000000000000000000000000000000000000000000000000000000815260040161184990613f8c565b60405180910390fd5b600073ffffffffffffffffffffffffffffffffffffffff168173ffffffffffffffffffffffffffffffffffffffff1614156118c2576040517f08c379a00000000000000000000000000000000000000000000000000000000081526004016118b990613e0c565b60405180910390fd5b6118cb81611e23565b50565b60007f780e9d63000000000000000000000000000000000000000000000000000000007bffffffffffffffffffffffffffffffffffffffffffffffffffffffff1916827bffffffffffffffffffffffffffffffffffffffffffffffffffffffff1916148061194157506119408261216d565b5b9050919050565b60008073ffffffffffffffffffffffffffffffffffffffff166002600084815260200190815260200160002060009054906101000a900473ffffffffffffffffffffffffffffffffffffffff1673ffffffffffffffffffffffffffffffffffffffff1614159050919050565b600033905090565b816004600083815260200190815260200160002060006101000a81548173ffffffffffffffffffffffffffffffffffffffff021916908373ffffffffffffffffffffffffffffffffffffffff160217905550808273ffffffffffffffffffffffffffffffffffffffff16611a2f83610b85565b73ffffffffffffffffffffffffffffffffffffffff167f8c5be1e5ebec7d5bd14f71427d1e84f3dd0314c0f7b2291e5b200ac8c7c3b92560405160405180910390a45050565b6000611a8082611948565b611abf576040517f08c379a0000000000000000000000000000000000000000000000000000000008152600401611ab690613e8c565b60405180910390fd5b6000611aca83610b85565b90508073ffffffffffffffffffffffffffffffffffffffff168473ffffffffffffffffffffffffffffffffffffffff161480611b3957508373ffffffffffffffffffffffffffffffffffffffff16611b2184610596565b73ffffffffffffffffffffffffffffffffffffffff16145b80611b4a5750611b4981856114ef565b5b91505092915050565b611b5c82611948565b611b9b576040517f08c379a0000000000000000000000000000000000000000000000000000000008152600401611b9290613f0c565b60405180910390fd5b80600a60008481526020019081526020016000209080519060200190611bc2929190612ec6565b505050565b8273ffffffffffffffffffffffffffffffffffffffff16611be782610b85565b73ffffffffffffffffffffffffffffffffffffffff1614611c3d576040517f08c379a0000000000000000000000000000000000000000000000000000000008152600401611c3490613fac565b60405180910390fd5b600073ffffffffffffffffffffffffffffffffffffffff168273ffffffffffffffffffffffffffffffffffffffff161415611cad576040517f08c379a0000000000000000000000000000000000000000000000000000000008152600401611ca490613e4c565b60405180910390fd5b611cb883838361224f565b611cc36000826119bc565b6001600360008573ffffffffffffffffffffffffffffffffffffffff1673ffffffffffffffffffffffffffffffffffffffff1681526020019081526020016000206000828254611d1391906141e2565b925050819055506001600360008473ffffffffffffffffffffffffffffffffffffffff1673ffffffffffffffffffffffffffffffffffffffff1681526020019081526020016000206000828254611d6a919061415b565b92505081905550816002600083815260200190815260200160002060006101000a81548173ffffffffffffffffffffffffffffffffffffffff021916908373ffffffffffffffffffffffffffffffffffffffff160217905550808273ffffffffffffffffffffffffffffffffffffffff168473ffffffffffffffffffffffffffffffffffffffff167fddf252ad1be2c89b69c2b068fc378daa952ba7f163c4a11628f55a4df523b3ef60405160405180910390a4505050565b6000600b60009054906101000a900473ffffffffffffffffffffffffffffffffffffffff16905081600b60006101000a81548173ffffffffffffffffffffffffffffffffffffffff021916908373ffffffffffffffffffffffffffffffffffffffff1602179055508173ffffffffffffffffffffffffffffffffffffffff168173ffffffffffffffffffffffffffffffffffffffff167f8be0079c531659141344cd1fd0a4f28419497f9722a3daafe3b4186f6b6457e060405160405180910390a35050565b611ef4848484611bc7565b611f00848484846122e3565b611f3f576040517f08c379a0000000000000000000000000000000000000000000000000000000008152600401611f3690613dcc565b60405180910390fd5b50505050565b6060611f5082611948565b611f8f576040517f08c379a0000000000000000000000000000000000000000000000000000000008152600401611f8690613f4c565b60405180910390fd5b6000600a60008481526020019081526020016000208054611faf906142e8565b80601f0160208091040260200160405190810160405280929190818152602001828054611fdb906142e8565b80156120285780601f10611ffd57610100808354040283529160200191612028565b820191906000526020600020905b81548152906001019060200180831161200b57829003601f168201915b50505050509050600061203961247a565b905060008151141561204f578192505050612092565b60008251111561208457808260405160200161206c929190613ce4565b60405160208183030381529060405292505050612092565b61208d8461253b565b925050505b919050565b600081600001549050919050565b6120bf8282604051806020016040528060008152506125e2565b5050565b6001816000016000828254019250508190555050565b6000600560008473ffffffffffffffffffffffffffffffffffffffff1673ffffffffffffffffffffffffffffffffffffffff16815260200190815260200160002060008373ffffffffffffffffffffffffffffffffffffffff1673ffffffffffffffffffffffffffffffffffffffff16815260200190815260200160002060009054906101000a900460ff16905092915050565b60007f80ac58cd000000000000000000000000000000000000000000000000000000007bffffffffffffffffffffffffffffffffffffffffffffffffffffffff1916827bffffffffffffffffffffffffffffffffffffffffffffffffffffffff1916148061223857507f5b5e139f000000000000000000000000000000000000000000000000000000007bffffffffffffffffffffffffffffffffffffffffffffffffffffffff1916827bffffffffffffffffffffffffffffffffffffffffffffffffffffffff1916145b8061224857506122478261263d565b5b9050919050565b61227b7fec9f60f75a12bdcc94bd15f509e9b27af6ec9b8d41b1e3fed46bb6a4e066b9c260001b610b82565b6122a77fad21a69446da710536a111b841e1927ab18d0cdb6245eed8456c79f37f7c306460001b610b82565b6122d37fdd55378427b59dd47b9078674b9f306623102afeb00f8700f4e98448dace679060001b610b82565b6122de8383836126a7565b505050565b60006123048473ffffffffffffffffffffffffffffffffffffffff166127bb565b1561246d578373ffffffffffffffffffffffffffffffffffffffff1663150b7a0261232d6119b4565b8786866040518563ffffffff1660e01b815260040161234f9493929190613d23565b602060405180830381600087803b15801561236957600080fd5b505af192505050801561239a57506040513d601f19601f820116820180604052508101906123979190613319565b60015b61241d573d80600081146123ca576040519150601f19603f3d011682016040523d82523d6000602084013e6123cf565b606091505b50600081511415612415576040517f08c379a000000000000000000000000000000000000000000000000000000000815260040161240c90613dcc565b60405180910390fd5b805181602001fd5b63150b7a0260e01b7bffffffffffffffffffffffffffffffffffffffffffffffffffffffff1916817bffffffffffffffffffffffffffffffffffffffffffffffffffffffff191614915050612472565b600190505b949350505050565b60606124a87f7202a78a7a3ac581a50c132b633f69482a96ffe50f3ca299c9a4c371ad33e14560001b610b82565b6124d47f35fc1727472207bfa579bcc4249c5b718217135316ef7b49dc42e94bec87dfa460001b610b82565b6125007fd3da64de5cb261715600d2789abf17b5069c447969653d368b89a1ef89b6cbc560001b610b82565b6040518060400160405280600781526020017f697066733a2f2f00000000000000000000000000000000000000000000000000815250905090565b606061254682611948565b612585576040517f08c379a000000000000000000000000000000000000000000000000000000000815260040161257c90613fcc565b60405180910390fd5b600061258f61247a565b905060008151116125af57604051806020016040528060008152506125da565b806125b9846127ce565b6040516020016125ca929190613ce4565b6040516020818303038152906040525b915050919050565b6125ec838361297b565b6125f960008484846122e3565b612638576040517f08c379a000000000000000000000000000000000000000000000000000000000815260040161262f90613dcc565b60405180910390fd5b505050565b60007f01ffc9a7000000000000000000000000000000000000000000000000000000007bffffffffffffffffffffffffffffffffffffffffffffffffffffffff1916827bffffffffffffffffffffffffffffffffffffffffffffffffffffffff1916149050919050565b6126b2838383612b49565b600073ffffffffffffffffffffffffffffffffffffffff168373ffffffffffffffffffffffffffffffffffffffff1614156126f5576126f081612b4e565b612734565b8173ffffffffffffffffffffffffffffffffffffffff168373ffffffffffffffffffffffffffffffffffffffff1614612733576127328382612b97565b5b5b600073ffffffffffffffffffffffffffffffffffffffff168273ffffffffffffffffffffffffffffffffffffffff1614156127775761277281612d04565b6127b6565b8273ffffffffffffffffffffffffffffffffffffffff168273ffffffffffffffffffffffffffffffffffffffff16146127b5576127b48282612e47565b5b5b505050565b600080823b905060008111915050919050565b60606000821415612816576040518060400160405280600181526020017f30000000000000000000000000000000000000000000000000000000000000008152509050612976565b600082905060005b600082146128485780806128319061431a565b915050600a8261284191906141b1565b915061281e565b60008167ffffffffffffffff81111561288a577f4e487b7100000000000000000000000000000000000000000000000000000000600052604160045260246000fd5b6040519080825280601f01601f1916602001820160405280156128bc5781602001600182028036833780820191505090505b5090505b6000851461296f576001826128d591906141e2565b9150600a856128e49190614363565b60306128f0919061415b565b60f81b81838151811061292c577f4e487b7100000000000000000000000000000000000000000000000000000000600052603260045260246000fd5b60200101907effffffffffffffffffffffffffffffffffffffffffffffffffffffffffffff1916908160001a905350600a8561296891906141b1565b94506128c0565b8093505050505b919050565b600073ffffffffffffffffffffffffffffffffffffffff168273ffffffffffffffffffffffffffffffffffffffff1614156129eb576040517f08c379a00000000000000000000000000000000000000000000000000000000081526004016129e290613f2c565b60405180910390fd5b6129f481611948565b15612a34576040517f08c379a0000000000000000000000000000000000000000000000000000000008152600401612a2b90613e2c565b60405180910390fd5b612a406000838361224f565b6001600360008473ffffffffffffffffffffffffffffffffffffffff1673ffffffffffffffffffffffffffffffffffffffff1681526020019081526020016000206000828254612a90919061415b565b92505081905550816002600083815260200190815260200160002060006101000a81548173ffffffffffffffffffffffffffffffffffffffff021916908373ffffffffffffffffffffffffffffffffffffffff160217905550808273ffffffffffffffffffffffffffffffffffffffff16600073ffffffffffffffffffffffffffffffffffffffff167fddf252ad1be2c89b69c2b068fc378daa952ba7f163c4a11628f55a4df523b3ef60405160405180910390a45050565b505050565b6008805490506009600083815260200190815260200160002081905550600881908060018154018082558091505060019003906000526020600020016000909190919091505550565b60006001612ba484610c37565b612bae91906141e2565b9050600060076000848152602001908152602001600020549050818114612c93576000600660008673ffffffffffffffffffffffffffffffffffffffff1673ffffffffffffffffffffffffffffffffffffffff168152602001908152602001600020600084815260200190815260200160002054905080600660008773ffffffffffffffffffffffffffffffffffffffff1673ffffffffffffffffffffffffffffffffffffffff168152602001908152602001600020600084815260200190815260200160002081905550816007600083815260200190815260200160002081905550505b6007600084815260200190815260200160002060009055600660008573ffffffffffffffffffffffffffffffffffffffff1673ffffffffffffffffffffffffffffffffffffffff16815260200190815260200160002060008381526020019081526020016000206000905550505050565b60006001600880549050612d1891906141e2565b9050600060096000848152602001908152602001600020549050600060088381548110612d6e577f4e487b7100000000000000000000000000000000000000000000000000000000600052603260045260246000fd5b906000526020600020015490508060088381548110612db6577f4e487b7100000000000000000000000000000000000000000000000000000000600052603260045260246000fd5b906000526020600020018190555081600960008381526020019081526020016000208190555060096000858152602001908152602001600020600090556008805480612e2b577f4e487b7100000000000000000000000000000000000000000000000000000000600052603160045260246000fd5b6001900381819060005260206000200160009055905550505050565b6000612e5283610c37565b905081600660008573ffffffffffffffffffffffffffffffffffffffff1673ffffffffffffffffffffffffffffffffffffffff168152602001908152602001600020600083815260200190815260200160002081905550806007600084815260200190815260200160002081905550505050565b828054612ed2906142e8565b90600052602060002090601f016020900481019282612ef45760008555612f3b565b82601f10612f0d57805160ff1916838001178555612f3b565b82800160010185558215612f3b579182015b82811115612f3a578251825591602001919060010190612f1f565b5b509050612f489190612f4c565b5090565b5b80821115612f65576000816000905550600101612f4d565b5090565b6000612f7c612f77846140b8565b614087565b905082815260208101848484011115612f9457600080fd5b612f9f8482856142a6565b509392505050565b6000612fba612fb5846140e8565b614087565b905082815260208101848484011115612fd257600080fd5b612fdd8482856142a6565b509392505050565b600081359050612ff481614461565b92915050565b60008135905061300981614478565b92915050565b60008135905061301e8161448f565b92915050565b600081359050613033816144a6565b92915050565b600081519050613048816144a6565b92915050565b600082601f83011261305f57600080fd5b813561306f848260208601612f69565b91505092915050565b600081519050613087816144bd565b92915050565b600082601f83011261309e57600080fd5b81356130ae848260208601612fa7565b91505092915050565b6000813590506130c6816144d4565b92915050565b6000602082840312156130de57600080fd5b60006130ec84828501612fe5565b91505092915050565b6000806040838503121561310857600080fd5b600061311685828601612fe5565b925050602061312785828601612fe5565b9150509250929050565b60008060006060848603121561314657600080fd5b600061315486828701612fe5565b935050602061316586828701612fe5565b9250506040613176868287016130b7565b9150509250925092565b6000806000806080858703121561319657600080fd5b60006131a487828801612fe5565b94505060206131b587828801612fe5565b93505060406131c6878288016130b7565b925050606085013567ffffffffffffffff8111156131e357600080fd5b6131ef8782880161304e565b91505092959194509250565b6000806040838503121561320e57600080fd5b600061321c85828601612fe5565b925050602061322d85828601612ffa565b9150509250929050565b6000806040838503121561324a57600080fd5b600061325885828601612fe5565b925050602083013567ffffffffffffffff81111561327557600080fd5b6132818582860161308d565b9150509250929050565b6000806040838503121561329e57600080fd5b60006132ac85828601612fe5565b92505060206132bd858286016130b7565b9150509250929050565b6000602082840312156132d957600080fd5b60006132e78482850161300f565b91505092915050565b60006020828403121561330257600080fd5b600061331084828501613024565b91505092915050565b60006020828403121561332b57600080fd5b600061333984828501613039565b91505092915050565b60006020828403121561335457600080fd5b600061336284828501613078565b91505092915050565b60006020828403121561337d57600080fd5b600061338b848285016130b7565b91505092915050565b600080604083850312156133a757600080fd5b60006133b5858286016130b7565b925050602083013567ffffffffffffffff8111156133d257600080fd5b6133de8582860161308d565b9150509250929050565b6133f181614216565b82525050565b61340081614228565b82525050565b600061341182614118565b61341b818561412e565b935061342b8185602086016142b5565b61343481614450565b840191505092915050565b600061344a82614123565b613454818561413f565b93506134648185602086016142b5565b61346d81614450565b840191505092915050565b600061348382614123565b61348d8185614150565b935061349d8185602086016142b5565b80840191505092915050565b60006134b6602b8361413f565b91507f455243373231456e756d657261626c653a206f776e657220696e646578206f7560008301527f74206f6620626f756e64730000000000000000000000000000000000000000006020830152604082019050919050565b600061351c60328361413f565b91507f4552433732313a207472616e7366657220746f206e6f6e20455243373231526560008301527f63656976657220696d706c656d656e74657200000000000000000000000000006020830152604082019050919050565b6000613582603e8361413f565b91507f52464f58436f6c6c656374696f6e3a2060736574546f6b656e5552496020636160008301527f6c6c6572206973206e6f74206f776e6572206e6f7220617070726f76656400006020830152604082019050919050565b60006135e860268361413f565b91507f4f776e61626c653a206e6577206f776e657220697320746865207a65726f206160008301527f64647265737300000000000000000000000000000000000000000000000000006020830152604082019050919050565b600061364e601c8361413f565b91507f4552433732313a20746f6b656e20616c7265616479206d696e746564000000006000830152602082019050919050565b600061368e60248361413f565b91507f4552433732313a207472616e7366657220746f20746865207a65726f2061646460008301527f72657373000000000000000000000000000000000000000000000000000000006020830152604082019050919050565b60006136f460198361413f565b91507f4552433732313a20617070726f766520746f2063616c6c6572000000000000006000830152602082019050919050565b6000613734602c8361413f565b91507f4552433732313a206f70657261746f7220717565727920666f72206e6f6e657860008301527f697374656e7420746f6b656e00000000000000000000000000000000000000006020830152604082019050919050565b600061379a60388361413f565b91507f4552433732313a20617070726f76652063616c6c6572206973206e6f74206f7760008301527f6e6572206e6f7220617070726f76656420666f7220616c6c00000000000000006020830152604082019050919050565b6000613800602a8361413f565b91507f4552433732313a2062616c616e636520717565727920666f7220746865207a6560008301527f726f2061646472657373000000000000000000000000000000000000000000006020830152604082019050919050565b600061386660298361413f565b91507f4552433732313a206f776e657220717565727920666f72206e6f6e657869737460008301527f656e7420746f6b656e00000000000000000000000000000000000000000000006020830152604082019050919050565b60006138cc602e8361413f565b91507f45524337323155524953746f726167653a2055524920736574206f66206e6f6e60008301527f6578697374656e7420746f6b656e0000000000000000000000000000000000006020830152604082019050919050565b600061393260208361413f565b91507f4552433732313a206d696e7420746f20746865207a65726f20616464726573736000830152602082019050919050565b600061397260318361413f565b91507f45524337323155524953746f726167653a2055524920717565727920666f722060008301527f6e6f6e6578697374656e7420746f6b656e0000000000000000000000000000006020830152604082019050919050565b60006139d8602c8361413f565b91507f4552433732313a20617070726f76656420717565727920666f72206e6f6e657860008301527f697374656e7420746f6b656e00000000000000000000000000000000000000006020830152604082019050919050565b6000613a3e60208361413f565b91507f4f776e61626c653a2063616c6c6572206973206e6f7420746865206f776e65726000830152602082019050919050565b6000613a7e60298361413f565b91507f4552433732313a207472616e73666572206f6620746f6b656e2074686174206960008301527f73206e6f74206f776e00000000000000000000000000000000000000000000006020830152604082019050919050565b6000613ae4602f8361413f565b91507f4552433732314d657461646174613a2055524920717565727920666f72206e6f60008301527f6e6578697374656e7420746f6b656e00000000000000000000000000000000006020830152604082019050919050565b6000613b4a60218361413f565b91507f4552433732313a20617070726f76616c20746f2063757272656e74206f776e6560008301527f72000000000000000000000000000000000000000000000000000000000000006020830152604082019050919050565b6000613bb060248361413f565b91507f52464f58434f6c6c656374696f6e3a2060746f6b656e5552495f60206973206560008301527f6d707479000000000000000000000000000000000000000000000000000000006020830152604082019050919050565b6000613c1660318361413f565b91507f4552433732313a207472616e736665722063616c6c6572206973206e6f74206f60008301527f776e6572206e6f7220617070726f7665640000000000000000000000000000006020830152604082019050919050565b6000613c7c602c8361413f565b91507f455243373231456e756d657261626c653a20676c6f62616c20696e646578206f60008301527f7574206f6620626f756e647300000000000000000000000000000000000000006020830152604082019050919050565b613cde8161429c565b82525050565b6000613cf08285613478565b9150613cfc8284613478565b91508190509392505050565b6000602082019050613d1d60008301846133e8565b92915050565b6000608082019050613d3860008301876133e8565b613d4560208301866133e8565b613d526040830185613cd5565b8181036060830152613d648184613406565b905095945050505050565b6000602082019050613d8460008301846133f7565b92915050565b60006020820190508181036000830152613da4818461343f565b905092915050565b60006020820190508181036000830152613dc5816134a9565b9050919050565b60006020820190508181036000830152613de58161350f565b9050919050565b60006020820190508181036000830152613e0581613575565b9050919050565b60006020820190508181036000830152613e25816135db565b9050919050565b60006020820190508181036000830152613e4581613641565b9050919050565b60006020820190508181036000830152613e6581613681565b9050919050565b60006020820190508181036000830152613e85816136e7565b9050919050565b60006020820190508181036000830152613ea581613727565b9050919050565b60006020820190508181036000830152613ec58161378d565b9050919050565b60006020820190508181036000830152613ee5816137f3565b9050919050565b60006020820190508181036000830152613f0581613859565b9050919050565b60006020820190508181036000830152613f25816138bf565b9050919050565b60006020820190508181036000830152613f4581613925565b9050919050565b60006020820190508181036000830152613f6581613965565b9050919050565b60006020820190508181036000830152613f85816139cb565b9050919050565b60006020820190508181036000830152613fa581613a31565b9050919050565b60006020820190508181036000830152613fc581613a71565b9050919050565b60006020820190508181036000830152613fe581613ad7565b9050919050565b6000602082019050818103600083015261400581613b3d565b9050919050565b6000602082019050818103600083015261402581613ba3565b9050919050565b6000602082019050818103600083015261404581613c09565b9050919050565b6000602082019050818103600083015261406581613c6f565b9050919050565b60006020820190506140816000830184613cd5565b92915050565b6000604051905081810181811067ffffffffffffffff821117156140ae576140ad614421565b5b8060405250919050565b600067ffffffffffffffff8211156140d3576140d2614421565b5b601f19601f8301169050602081019050919050565b600067ffffffffffffffff82111561410357614102614421565b5b601f19601f8301169050602081019050919050565b600081519050919050565b600081519050919050565b600082825260208201905092915050565b600082825260208201905092915050565b600081905092915050565b60006141668261429c565b91506141718361429c565b9250827fffffffffffffffffffffffffffffffffffffffffffffffffffffffffffffffff038211156141a6576141a5614394565b5b828201905092915050565b60006141bc8261429c565b91506141c78361429c565b9250826141d7576141d66143c3565b5b828204905092915050565b60006141ed8261429c565b91506141f88361429c565b92508282101561420b5761420a614394565b5b828203905092915050565b60006142218261427c565b9050919050565b60008115159050919050565b6000819050919050565b60007fffffffff0000000000000000000000000000000000000000000000000000000082169050919050565b600061427582614216565b9050919050565b600073ffffffffffffffffffffffffffffffffffffffff82169050919050565b6000819050919050565b82818337600083830152505050565b60005b838110156142d35780820151818401526020810190506142b8565b838111156142e2576000848401525b50505050565b6000600282049050600182168061430057607f821691505b60208210811415614314576143136143f2565b5b50919050565b60006143258261429c565b91507fffffffffffffffffffffffffffffffffffffffffffffffffffffffffffffffff82141561435857614357614394565b5b600182019050919050565b600061436e8261429c565b91506143798361429c565b925082614389576143886143c3565b5b828206905092915050565b7f4e487b7100000000000000000000000000000000000000000000000000000000600052601160045260246000fd5b7f4e487b7100000000000000000000000000000000000000000000000000000000600052601260045260246000fd5b7f4e487b7100000000000000000000000000000000000000000000000000000000600052602260045260246000fd5b7f4e487b7100000000000000000000000000000000000000000000000000000000600052604160045260246000fd5b6000601f19601f8301169050919050565b61446a81614216565b811461447557600080fd5b50565b61448181614228565b811461448c57600080fd5b50565b61449881614234565b81146144a357600080fd5b50565b6144af8161423e565b81146144ba57600080fd5b50565b6144c68161426a565b81146144d157600080fd5b50565b6144dd8161429c565b81146144e857600080fd5b5056fea2646970667358221220e0ecf05a34df72f96a57a41628f3be709d0a7134c208233c63acaab940696e6864736f6c63430008000033",
  "linkReferences": {},
  "deployedLinkReferences": {}
}