{
  "contractName": "RFOXCollection",
  "abi": [
    {
      "inputs": [
        {
          "internalType": "string",
          "name": "contractURI_",
          "type": "string"
        }
      ],
      "stateMutability": "nonpayable",
      "type": "constructor"
    },
    {
      "anonymous": false,
      "inputs": [
        {
          "indexed": true,
          "internalType": "address",
          "name": "owner",
          "type": "address"
        },
        {
          "indexed": true,
          "internalType": "address",
          "name": "approved",
          "type": "address"
        },
        {
          "indexed": true,
          "internalType": "uint256",
          "name": "tokenId",
          "type": "uint256"
        }
      ],
      "name": "Approval",
      "type": "event"
    },
    {
      "anonymous": false,
      "inputs": [
        {
          "indexed": true,
          "internalType": "address",
          "name": "owner",
          "type": "address"
        },
        {
          "indexed": true,
          "internalType": "address",
          "name": "operator",
          "type": "address"
        },
        {
          "indexed": false,
          "internalType": "bool",
          "name": "approved",
          "type": "bool"
        }
      ],
      "name": "ApprovalForAll",
      "type": "event"
    },
    {
      "anonymous": false,
      "inputs": [
        {
          "indexed": true,
          "internalType": "address",
          "name": "previousOwner",
          "type": "address"
        },
        {
          "indexed": true,
          "internalType": "address",
          "name": "newOwner",
          "type": "address"
        }
      ],
      "name": "OwnershipTransferred",
      "type": "event"
    },
    {
      "anonymous": false,
      "inputs": [
        {
          "indexed": true,
          "internalType": "address",
          "name": "from",
          "type": "address"
        },
        {
          "indexed": true,
          "internalType": "address",
          "name": "to",
          "type": "address"
        },
        {
          "indexed": true,
          "internalType": "uint256",
          "name": "tokenId",
          "type": "uint256"
        }
      ],
      "name": "Transfer",
      "type": "event"
    },
    {
      "inputs": [
        {
          "internalType": "address",
          "name": "to",
          "type": "address"
        },
        {
          "internalType": "uint256",
          "name": "tokenId",
          "type": "uint256"
        }
      ],
      "name": "approve",
      "outputs": [],
      "stateMutability": "nonpayable",
      "type": "function"
    },
    {
      "inputs": [
        {
          "internalType": "address",
          "name": "owner",
          "type": "address"
        }
      ],
      "name": "balanceOf",
      "outputs": [
        {
          "internalType": "uint256",
          "name": "",
          "type": "uint256"
        }
      ],
      "stateMutability": "view",
      "type": "function",
      "constant": true
    },
    {
      "inputs": [
        {
          "internalType": "uint256",
          "name": "tokenId",
          "type": "uint256"
        }
      ],
      "name": "getApproved",
      "outputs": [
        {
          "internalType": "address",
          "name": "",
          "type": "address"
        }
      ],
      "stateMutability": "view",
      "type": "function",
      "constant": true
    },
    {
      "inputs": [
        {
          "internalType": "address",
          "name": "owner",
          "type": "address"
        },
        {
          "internalType": "address",
          "name": "operator",
          "type": "address"
        }
      ],
      "name": "isApprovedForAll",
      "outputs": [
        {
          "internalType": "bool",
          "name": "",
          "type": "bool"
        }
      ],
      "stateMutability": "view",
      "type": "function",
      "constant": true
    },
    {
      "inputs": [],
      "name": "name",
      "outputs": [
        {
          "internalType": "string",
          "name": "",
          "type": "string"
        }
      ],
      "stateMutability": "view",
      "type": "function",
      "constant": true
    },
    {
      "inputs": [],
      "name": "owner",
      "outputs": [
        {
          "internalType": "address",
          "name": "",
          "type": "address"
        }
      ],
      "stateMutability": "view",
      "type": "function",
      "constant": true
    },
    {
      "inputs": [
        {
          "internalType": "uint256",
          "name": "tokenId",
          "type": "uint256"
        }
      ],
      "name": "ownerOf",
      "outputs": [
        {
          "internalType": "address",
          "name": "",
          "type": "address"
        }
      ],
      "stateMutability": "view",
      "type": "function",
      "constant": true
    },
    {
      "inputs": [],
      "name": "renounceOwnership",
      "outputs": [],
      "stateMutability": "nonpayable",
      "type": "function"
    },
    {
      "inputs": [
        {
          "internalType": "address",
          "name": "from",
          "type": "address"
        },
        {
          "internalType": "address",
          "name": "to",
          "type": "address"
        },
        {
          "internalType": "uint256",
          "name": "tokenId",
          "type": "uint256"
        }
      ],
      "name": "safeTransferFrom",
      "outputs": [],
      "stateMutability": "nonpayable",
      "type": "function"
    },
    {
      "inputs": [
        {
          "internalType": "address",
          "name": "from",
          "type": "address"
        },
        {
          "internalType": "address",
          "name": "to",
          "type": "address"
        },
        {
          "internalType": "uint256",
          "name": "tokenId",
          "type": "uint256"
        },
        {
          "internalType": "bytes",
          "name": "_data",
          "type": "bytes"
        }
      ],
      "name": "safeTransferFrom",
      "outputs": [],
      "stateMutability": "nonpayable",
      "type": "function"
    },
    {
      "inputs": [
        {
          "internalType": "address",
          "name": "operator",
          "type": "address"
        },
        {
          "internalType": "bool",
          "name": "approved",
          "type": "bool"
        }
      ],
      "name": "setApprovalForAll",
      "outputs": [],
      "stateMutability": "nonpayable",
      "type": "function"
    },
    {
      "inputs": [],
      "name": "symbol",
      "outputs": [
        {
          "internalType": "string",
          "name": "",
          "type": "string"
        }
      ],
      "stateMutability": "view",
      "type": "function",
      "constant": true
    },
    {
      "inputs": [
        {
          "internalType": "uint256",
          "name": "index",
          "type": "uint256"
        }
      ],
      "name": "tokenByIndex",
      "outputs": [
        {
          "internalType": "uint256",
          "name": "",
          "type": "uint256"
        }
      ],
      "stateMutability": "view",
      "type": "function",
      "constant": true
    },
    {
      "inputs": [
        {
          "internalType": "address",
          "name": "owner",
          "type": "address"
        },
        {
          "internalType": "uint256",
          "name": "index",
          "type": "uint256"
        }
      ],
      "name": "tokenOfOwnerByIndex",
      "outputs": [
        {
          "internalType": "uint256",
          "name": "",
          "type": "uint256"
        }
      ],
      "stateMutability": "view",
      "type": "function",
      "constant": true
    },
    {
      "inputs": [],
      "name": "totalSupply",
      "outputs": [
        {
          "internalType": "uint256",
          "name": "",
          "type": "uint256"
        }
      ],
      "stateMutability": "view",
      "type": "function",
      "constant": true
    },
    {
      "inputs": [
        {
          "internalType": "address",
          "name": "from",
          "type": "address"
        },
        {
          "internalType": "address",
          "name": "to",
          "type": "address"
        },
        {
          "internalType": "uint256",
          "name": "tokenId",
          "type": "uint256"
        }
      ],
      "name": "transferFrom",
      "outputs": [],
      "stateMutability": "nonpayable",
      "type": "function"
    },
    {
      "inputs": [
        {
          "internalType": "address",
          "name": "newOwner",
          "type": "address"
        }
      ],
      "name": "transferOwnership",
      "outputs": [],
      "stateMutability": "nonpayable",
      "type": "function"
    },
    {
      "inputs": [],
      "name": "contractURI",
      "outputs": [
        {
          "internalType": "string",
          "name": "",
          "type": "string"
        }
      ],
      "stateMutability": "view",
      "type": "function",
      "constant": true
    },
    {
      "inputs": [
        {
          "internalType": "address",
          "name": "_to",
          "type": "address"
        },
        {
          "internalType": "string",
          "name": "_tokenURI",
          "type": "string"
        }
      ],
      "name": "safeMint",
      "outputs": [],
      "stateMutability": "nonpayable",
      "type": "function"
    },
    {
      "inputs": [
        {
          "internalType": "uint256",
          "name": "tokenId",
          "type": "uint256"
        }
      ],
      "name": "tokenURI",
      "outputs": [
        {
          "internalType": "string",
          "name": "",
          "type": "string"
        }
      ],
      "stateMutability": "view",
      "type": "function",
      "constant": true
    },
    {
      "inputs": [
        {
          "internalType": "bytes4",
          "name": "interfaceId",
          "type": "bytes4"
        }
      ],
      "name": "supportsInterface",
      "outputs": [
        {
          "internalType": "bool",
          "name": "",
          "type": "bool"
        }
      ],
      "stateMutability": "view",
      "type": "function",
      "constant": true
    }
  ],
  "bytecode": "0x60806040523480156200001157600080fd5b5060405162002019380380620020198339810160408190526200003491620001d1565b604080518082018252600e81526d292327ac21b7b63632b1ba34b7b760911b6020808301918252835180850190945260038452624d544b60e81b90840152815191929162000085916000916200012b565b5080516200009b9060019060208401906200012b565b505050620000b8620000b2620000d560201b60201c565b620000d9565b8051620000cd90600c9060208401906200012b565b505062000300565b3390565b600b80546001600160a01b038381166001600160a01b0319831681179093556040519116919082907f8be0079c531659141344cd1fd0a4f28419497f9722a3daafe3b4186f6b6457e090600090a35050565b8280546200013990620002ad565b90600052602060002090601f0160209004810192826200015d5760008555620001a8565b82601f106200017857805160ff1916838001178555620001a8565b82800160010185558215620001a8579182015b82811115620001a85782518255916020019190600101906200018b565b50620001b6929150620001ba565b5090565b5b80821115620001b65760008155600101620001bb565b60006020808385031215620001e557600080fd5b82516001600160401b0380821115620001fd57600080fd5b818501915085601f8301126200021257600080fd5b815181811115620002275762000227620002ea565b604051601f8201601f19908116603f01168101908382118183101715620002525762000252620002ea565b8160405282815288868487010111156200026b57600080fd5b600093505b828410156200028f578484018601518185018701529285019262000270565b82841115620002a15760008684830101525b98975050505050505050565b600181811c90821680620002c257607f821691505b60208210811415620002e457634e487b7160e01b600052602260045260246000fd5b50919050565b634e487b7160e01b600052604160045260246000fd5b611d0980620003106000396000f3fe608060405234801561001057600080fd5b50600436106101075760003560e01c806301ffc9a71461010c57806306fdde0314610134578063081812fc14610149578063095ea7b31461017457806318160ddd1461018957806323b872dd1461019b5780632f745c59146101ae57806342842e0e146101c15780634f6ccce7146101d45780636352211e146101e757806370a08231146101fa578063715018a61461020d5780638da5cb5b1461021557806395d89b411461021d578063a22cb46514610225578063b88d4fde14610238578063c87b56dd1461024b578063d204c45e1461025e578063e8a3d48514610271578063e985e9c514610279578063f2fde38b1461028c575b600080fd5b61011f61011a3660046119a0565b61029f565b60405190151581526020015b60405180910390f35b61013c6102b0565b60405161012b9190611a8b565b61015c6101573660046119da565b610342565b6040516001600160a01b03909116815260200161012b565b610187610182366004611976565b6103cf565b005b6008545b60405190815260200161012b565b6101876101a9366004611822565b6104e0565b61018d6101bc366004611976565b610511565b6101876101cf366004611822565b6105a7565b61018d6101e23660046119da565b6105c2565b61015c6101f53660046119da565b610655565b61018d6102083660046117d4565b6106cc565b610187610753565b61015c61078e565b61013c61079d565b6101876102333660046118d9565b6107ac565b61018761024636600461185e565b61086d565b61013c6102593660046119da565b6108a5565b61018761026c366004611915565b6108b0565b61013c61090e565b61011f6102873660046117ef565b61091d565b61018761029a3660046117d4565b61094b565b60006102aa826109eb565b92915050565b6060600080546102bf90611be5565b80601f01602080910402602001604051908101604052809291908181526020018280546102eb90611be5565b80156103385780601f1061030d57610100808354040283529160200191610338565b820191906000526020600020905b81548152906001019060200180831161031b57829003601f168201915b5050505050905090565b600061034d82610a10565b6103b35760405162461bcd60e51b815260206004820152602c60248201527f4552433732313a20617070726f76656420717565727920666f72206e6f6e657860448201526b34b9ba32b73a103a37b5b2b760a11b60648201526084015b60405180910390fd5b506000908152600460205260409020546001600160a01b031690565b60006103da82610655565b9050806001600160a01b0316836001600160a01b031614156104485760405162461bcd60e51b815260206004820152602160248201527f4552433732313a20617070726f76616c20746f2063757272656e74206f776e656044820152603960f91b60648201526084016103aa565b336001600160a01b03821614806104645750610464813361091d565b6104d15760405162461bcd60e51b815260206004820152603860248201527f4552433732313a20617070726f76652063616c6c6572206973206e6f74206f776044820152771b995c881b9bdc88185c1c1c9bdd995908199bdc88185b1b60421b60648201526084016103aa565b6104db8383610a2d565b505050565b6104ea3382610a9b565b6105065760405162461bcd60e51b81526004016103aa90611b25565b6104db838383610b65565b600061051c836106cc565b821061057e5760405162461bcd60e51b815260206004820152602b60248201527f455243373231456e756d657261626c653a206f776e657220696e646578206f7560448201526a74206f6620626f756e647360a81b60648201526084016103aa565b506001600160a01b03919091166000908152600660209081526040808320938352929052205490565b6104db8383836040518060200160405280600081525061086d565b60006105cd60085490565b82106106305760405162461bcd60e51b815260206004820152602c60248201527f455243373231456e756d657261626c653a20676c6f62616c20696e646578206f60448201526b7574206f6620626f756e647360a01b60648201526084016103aa565b6008828154811061064357610643611c91565b90600052602060002001549050919050565b6000818152600260205260408120546001600160a01b0316806102aa5760405162461bcd60e51b815260206004820152602960248201527f4552433732313a206f776e657220717565727920666f72206e6f6e657869737460448201526832b73a103a37b5b2b760b91b60648201526084016103aa565b60006001600160a01b0382166107375760405162461bcd60e51b815260206004820152602a60248201527f4552433732313a2062616c616e636520717565727920666f7220746865207a65604482015269726f206164647265737360b01b60648201526084016103aa565b506001600160a01b031660009081526003602052604090205490565b3361075c61078e565b6001600160a01b0316146107825760405162461bcd60e51b81526004016103aa90611af0565b61078c6000610d10565b565b600b546001600160a01b031690565b6060600180546102bf90611be5565b6001600160a01b0382163314156108015760405162461bcd60e51b815260206004820152601960248201527822a9219b99189d1030b8383937bb32903a379031b0b63632b960391b60448201526064016103aa565b3360008181526005602090815260408083206001600160a01b03871680855290835292819020805460ff191686151590811790915590519081529192917f17307eab39ab6107e8899845ad3d59bd9653f200f220920489ca2b5937696c31910160405180910390a35050565b6108773383610a9b565b6108935760405162461bcd60e51b81526004016103aa90611b25565b61089f84848484610d62565b50505050565b60606102aa82610d95565b336108b961078e565b6001600160a01b0316146108df5760405162461bcd60e51b81526004016103aa90611af0565b60006108ea600d5490565b90506108f68382610ef7565b6109008183610f15565b6104db600d80546001019055565b6060600c80546102bf90611be5565b6001600160a01b03918216600090815260056020908152604080832093909416825291909152205460ff1690565b3361095461078e565b6001600160a01b03161461097a5760405162461bcd60e51b81526004016103aa90611af0565b6001600160a01b0381166109df5760405162461bcd60e51b815260206004820152602660248201527f4f776e61626c653a206e6577206f776e657220697320746865207a65726f206160448201526564647265737360d01b60648201526084016103aa565b6109e881610d10565b50565b60006001600160e01b0319821663780e9d6360e01b14806102aa57506102aa82610fa0565b6000908152600260205260409020546001600160a01b0316151590565b600081815260046020526040902080546001600160a01b0319166001600160a01b0384169081179091558190610a6282610655565b6001600160a01b03167f8c5be1e5ebec7d5bd14f71427d1e84f3dd0314c0f7b2291e5b200ac8c7c3b92560405160405180910390a45050565b6000610aa682610a10565b610b075760405162461bcd60e51b815260206004820152602c60248201527f4552433732313a206f70657261746f7220717565727920666f72206e6f6e657860448201526b34b9ba32b73a103a37b5b2b760a11b60648201526084016103aa565b6000610b1283610655565b9050806001600160a01b0316846001600160a01b03161480610b4d5750836001600160a01b0316610b4284610342565b6001600160a01b0316145b80610b5d5750610b5d818561091d565b949350505050565b826001600160a01b0316610b7882610655565b6001600160a01b031614610be05760405162461bcd60e51b815260206004820152602960248201527f4552433732313a207472616e73666572206f6620746f6b656e2074686174206960448201526839903737ba1037bbb760b91b60648201526084016103aa565b6001600160a01b038216610c425760405162461bcd60e51b8152602060048201526024808201527f4552433732313a207472616e7366657220746f20746865207a65726f206164646044820152637265737360e01b60648201526084016103aa565b610c4d838383610ff0565b610c58600082610a2d565b6001600160a01b0383166000908152600360205260408120805460019290610c81908490611ba2565b90915550506001600160a01b0382166000908152600360205260408120805460019290610caf908490611b76565b909155505060008181526002602052604080822080546001600160a01b0319166001600160a01b0386811691821790925591518493918716917fddf252ad1be2c89b69c2b068fc378daa952ba7f163c4a11628f55a4df523b3ef91a4505050565b600b80546001600160a01b038381166001600160a01b0319831681179093556040519116919082907f8be0079c531659141344cd1fd0a4f28419497f9722a3daafe3b4186f6b6457e090600090a35050565b610d6d848484610b65565b610d7984848484610ffb565b61089f5760405162461bcd60e51b81526004016103aa90611a9e565b6060610da082610a10565b610e065760405162461bcd60e51b815260206004820152603160248201527f45524337323155524953746f726167653a2055524920717565727920666f72206044820152703737b732bc34b9ba32b73a103a37b5b2b760791b60648201526084016103aa565b6000828152600a602052604081208054610e1f90611be5565b80601f0160208091040260200160405190810160405280929190818152602001828054610e4b90611be5565b8015610e985780601f10610e6d57610100808354040283529160200191610e98565b820191906000526020600020905b815481529060010190602001808311610e7b57829003601f168201915b505050505090506000610ea9611108565b9050805160001415610ebc575092915050565b815115610eee578082604051602001610ed6929190611a1f565b60405160208183030381529060405292505050919050565b610b5d84611129565b610f118282604051806020016040528060008152506111f4565b5050565b610f1e82610a10565b610f815760405162461bcd60e51b815260206004820152602e60248201527f45524337323155524953746f726167653a2055524920736574206f66206e6f6e60448201526d32bc34b9ba32b73a103a37b5b2b760911b60648201526084016103aa565b6000828152600a6020908152604090912082516104db928401906116aa565b60006001600160e01b031982166380ac58cd60e01b1480610fd157506001600160e01b03198216635b5e139f60e01b145b806102aa57506301ffc9a760e01b6001600160e01b03198316146102aa565b6104db838383611227565b60006001600160a01b0384163b156110fd57604051630a85bd0160e11b81526001600160a01b0385169063150b7a029061103f903390899088908890600401611a4e565b602060405180830381600087803b15801561105957600080fd5b505af1925050508015611089575060408051601f3d908101601f19168201909252611086918101906119bd565b60015b6110e3573d8080156110b7576040519150601f19603f3d011682016040523d82523d6000602084013e6110bc565b606091505b5080516110db5760405162461bcd60e51b81526004016103aa90611a9e565b805181602001fd5b6001600160e01b031916630a85bd0160e11b149050610b5d565b506001949350505050565b604080518082019091526007815266697066733a2f2f60c81b602082015290565b606061113482610a10565b6111985760405162461bcd60e51b815260206004820152602f60248201527f4552433732314d657461646174613a2055524920717565727920666f72206e6f60448201526e3732bc34b9ba32b73a103a37b5b2b760891b60648201526084016103aa565b60006111a2611108565b905060008151116111c257604051806020016040528060008152506111ed565b806111cc846112df565b6040516020016111dd929190611a1f565b6040516020818303038152906040525b9392505050565b6111fe83836113dc565b61120b6000848484610ffb565b6104db5760405162461bcd60e51b81526004016103aa90611a9e565b6001600160a01b0383166112825761127d81600880546000838152600960205260408120829055600182018355919091527ff3f7a9fe364faab93b216da50a3214154f22a0a2b415b23a84c8169e8b636ee30155565b6112a5565b816001600160a01b0316836001600160a01b0316146112a5576112a5838261151a565b6001600160a01b0382166112bc576104db816115b7565b826001600160a01b0316826001600160a01b0316146104db576104db8282611666565b6060816113035750506040805180820190915260018152600360fc1b602082015290565b8160005b811561132d578061131781611c20565b91506113269050600a83611b8e565b9150611307565b6000816001600160401b0381111561134757611347611ca7565b6040519080825280601f01601f191660200182016040528015611371576020820181803683370190505b5090505b8415610b5d57611386600183611ba2565b9150611393600a86611c3b565b61139e906030611b76565b60f81b8183815181106113b3576113b3611c91565b60200101906001600160f81b031916908160001a9053506113d5600a86611b8e565b9450611375565b6001600160a01b0382166114325760405162461bcd60e51b815260206004820181905260248201527f4552433732313a206d696e7420746f20746865207a65726f206164647265737360448201526064016103aa565b61143b81610a10565b156114875760405162461bcd60e51b815260206004820152601c60248201527b115490cdcc8c4e881d1bdad95b88185b1c9958591e481b5a5b9d195960221b60448201526064016103aa565b61149360008383610ff0565b6001600160a01b03821660009081526003602052604081208054600192906114bc908490611b76565b909155505060008181526002602052604080822080546001600160a01b0319166001600160a01b03861690811790915590518392907fddf252ad1be2c89b69c2b068fc378daa952ba7f163c4a11628f55a4df523b3ef908290a45050565b60006001611527846106cc565b6115319190611ba2565b600083815260076020526040902054909150808214611584576001600160a01b03841660009081526006602090815260408083208584528252808320548484528184208190558352600790915290208190555b5060009182526007602090815260408084208490556001600160a01b039094168352600681528383209183525290812055565b6008546000906115c990600190611ba2565b600083815260096020526040812054600880549394509092849081106115f1576115f1611c91565b90600052602060002001549050806008838154811061161257611612611c91565b600091825260208083209091019290925582815260099091526040808220849055858252812055600880548061164a5761164a611c7b565b6001900381819060005260206000200160009055905550505050565b6000611671836106cc565b6001600160a01b039093166000908152600660209081526040808320868452825280832085905593825260079052919091209190915550565b8280546116b690611be5565b90600052602060002090601f0160209004810192826116d8576000855561171e565b82601f106116f157805160ff191683800117855561171e565b8280016001018555821561171e579182015b8281111561171e578251825591602001919060010190611703565b5061172a92915061172e565b5090565b5b8082111561172a576000815560010161172f565b60006001600160401b038084111561175d5761175d611ca7565b604051601f8501601f19908116603f0116810190828211818310171561178557611785611ca7565b8160405280935085815286868601111561179e57600080fd5b858560208301376000602087830101525050509392505050565b80356001600160a01b03811681146117cf57600080fd5b919050565b6000602082840312156117e657600080fd5b6111ed826117b8565b6000806040838503121561180257600080fd5b61180b836117b8565b9150611819602084016117b8565b90509250929050565b60008060006060848603121561183757600080fd5b611840846117b8565b925061184e602085016117b8565b9150604084013590509250925092565b6000806000806080858703121561187457600080fd5b61187d856117b8565b935061188b602086016117b8565b92506040850135915060608501356001600160401b038111156118ad57600080fd5b8501601f810187136118be57600080fd5b6118cd87823560208401611743565b91505092959194509250565b600080604083850312156118ec57600080fd5b6118f5836117b8565b91506020830135801515811461190a57600080fd5b809150509250929050565b6000806040838503121561192857600080fd5b611931836117b8565b915060208301356001600160401b0381111561194c57600080fd5b8301601f8101851361195d57600080fd5b61196c85823560208401611743565b9150509250929050565b6000806040838503121561198957600080fd5b611992836117b8565b946020939093013593505050565b6000602082840312156119b257600080fd5b81356111ed81611cbd565b6000602082840312156119cf57600080fd5b81516111ed81611cbd565b6000602082840312156119ec57600080fd5b5035919050565b60008151808452611a0b816020860160208601611bb9565b601f01601f19169290920160200192915050565b60008351611a31818460208801611bb9565b835190830190611a45818360208801611bb9565b01949350505050565b6001600160a01b0385811682528416602082015260408101839052608060608201819052600090611a81908301846119f3565b9695505050505050565b6020815260006111ed60208301846119f3565b60208082526032908201527f4552433732313a207472616e7366657220746f206e6f6e20455243373231526560408201527131b2b4bb32b91034b6b83632b6b2b73a32b960711b606082015260800190565b6020808252818101527f4f776e61626c653a2063616c6c6572206973206e6f7420746865206f776e6572604082015260600190565b60208082526031908201527f4552433732313a207472616e736665722063616c6c6572206973206e6f74206f6040820152701ddb995c881b9bdc88185c1c1c9bdd9959607a1b606082015260800190565b60008219821115611b8957611b89611c4f565b500190565b600082611b9d57611b9d611c65565b500490565b600082821015611bb457611bb4611c4f565b500390565b60005b83811015611bd4578181015183820152602001611bbc565b8381111561089f5750506000910152565b600181811c90821680611bf957607f821691505b60208210811415611c1a57634e487b7160e01b600052602260045260246000fd5b50919050565b6000600019821415611c3457611c34611c4f565b5060010190565b600082611c4a57611c4a611c65565b500690565b634e487b7160e01b600052601160045260246000fd5b634e487b7160e01b600052601260045260246000fd5b634e487b7160e01b600052603160045260246000fd5b634e487b7160e01b600052603260045260246000fd5b634e487b7160e01b600052604160045260246000fd5b6001600160e01b0319811681146109e857600080fdfea2646970667358221220c700d4a99a1c9a2578ec6bc54351cc4fb7002e3e21de15c0aa3a8859bf9da4d164736f6c63430008060033",
  "immutableReferences": {},
  "source": "// SPDX-License-Identifier: MIT\npragma solidity ^0.8.2;\n\nimport \"@openzeppelin/contracts/token/ERC721/ERC721.sol\";\nimport \"@openzeppelin/contracts/token/ERC721/extensions/ERC721Enumerable.sol\";\nimport \"@openzeppelin/contracts/token/ERC721/extensions/ERC721URIStorage.sol\";\nimport \"@openzeppelin/contracts/access/Ownable.sol\";\nimport \"@openzeppelin/contracts/utils/Counters.sol\";\n\ncontract RFOXCollection is ERC721, ERC721Enumerable, ERC721URIStorage, Ownable {\n\n    string private _contractURI;\n\n    using Counters for Counters.Counter;\n\n    Counters.Counter private _tokenIdCounter;\n\n    constructor(string memory contractURI_) ERC721(\"RFOXCollection\", \"MTK\") {\n        _contractURI = contractURI_;\n    }\n\n    function contractURI() public view returns (string memory) {\n        return _contractURI;\n    }\n\n    function safeMint(address _to, string memory _tokenURI) public onlyOwner {\n        uint256 tokenId = _tokenIdCounter.current();\n        _safeMint(_to, tokenId);\n        _setTokenURI(tokenId, _tokenURI);\n        _tokenIdCounter.increment();\n    }\n \n    function _baseURI() internal pure override returns (string memory) {\n        return \"ipfs://\";\n    }\n\n    function _beforeTokenTransfer(address from, address to, uint256 tokenId)\n        internal\n        override(ERC721, ERC721Enumerable)\n    {\n        super._beforeTokenTransfer(from, to, tokenId);\n    }\n\n    function _burn(uint256 tokenId) internal override(ERC721, ERC721URIStorage) {\n        super._burn(tokenId);\n    }\n\n    function tokenURI(uint256 tokenId)\n        public\n        view\n        override(ERC721, ERC721URIStorage)\n        returns (string memory)\n    {\n        return super.tokenURI(tokenId);\n    }\n\n    function supportsInterface(bytes4 interfaceId)\n        public\n        view\n        override(ERC721, ERC721Enumerable)\n        returns (bool)\n    {\n        return super.supportsInterface(interfaceId);\n    }\n}\n",
  "sourcePath": "/Users/luis_mastrangelo/work/nft-platform-contracts/contracts/RFOXCollection.sol",
  "compiler": {
    "name": "solc",
    "version": "0.8.6+commit.11564f7e.Emscripten.clang"
  },
  "schemaVersion": "3.3.4",
  "updatedAt": "2021-08-09T15:14:11.420Z",
  "networkType": "ethereum",
  "devdoc": {
    "kind": "dev",
    "methods": {
      "approve(address,uint256)": {
        "details": "See {IERC721-approve}."
      },
      "balanceOf(address)": {
        "details": "See {IERC721-balanceOf}."
      },
      "getApproved(uint256)": {
        "details": "See {IERC721-getApproved}."
      },
      "isApprovedForAll(address,address)": {
        "details": "See {IERC721-isApprovedForAll}."
      },
      "name()": {
        "details": "See {IERC721Metadata-name}."
      },
      "owner()": {
        "details": "Returns the address of the current owner."
      },
      "ownerOf(uint256)": {
        "details": "See {IERC721-ownerOf}."
      },
      "renounceOwnership()": {
        "details": "Leaves the contract without owner. It will not be possible to call `onlyOwner` functions anymore. Can only be called by the current owner. NOTE: Renouncing ownership will leave the contract without an owner, thereby removing any functionality that is only available to the owner."
      },
      "safeTransferFrom(address,address,uint256)": {
        "details": "See {IERC721-safeTransferFrom}."
      },
      "safeTransferFrom(address,address,uint256,bytes)": {
        "details": "See {IERC721-safeTransferFrom}."
      },
      "setApprovalForAll(address,bool)": {
        "details": "See {IERC721-setApprovalForAll}."
      },
      "symbol()": {
        "details": "See {IERC721Metadata-symbol}."
      },
      "tokenByIndex(uint256)": {
        "details": "See {IERC721Enumerable-tokenByIndex}."
      },
      "tokenOfOwnerByIndex(address,uint256)": {
        "details": "See {IERC721Enumerable-tokenOfOwnerByIndex}."
      },
      "totalSupply()": {
        "details": "See {IERC721Enumerable-totalSupply}."
      },
      "transferFrom(address,address,uint256)": {
        "details": "See {IERC721-transferFrom}."
      },
      "transferOwnership(address)": {
        "details": "Transfers ownership of the contract to a new account (`newOwner`). Can only be called by the current owner."
      }
    },
    "version": 1
  },
  "userdoc": {
    "kind": "user",
    "methods": {},
    "version": 1
  }
}